{
  "address": "0x8f1b13497326857011B0b9A2b066054E1849F14D",
  "abi": [
    {
      "inputs": [
        {
          "internalType": "address",
          "name": "liquidityGenerator_",
          "type": "address"
        },
        {
          "internalType": "contract IVault",
          "name": "vault_",
          "type": "address"
        },
        {
          "internalType": "contract IFactory",
          "name": "factory_",
          "type": "address"
        },
        {
          "internalType": "address",
          "name": "mendi_",
          "type": "address"
        },
        {
          "internalType": "address",
          "name": "usdc_",
          "type": "address"
        },
        {
          "internalType": "address",
          "name": "vc_",
          "type": "address"
        }
      ],
      "stateMutability": "nonpayable",
      "type": "constructor"
    },
    {
      "anonymous": false,
      "inputs": [
        {
          "indexed": true,
          "internalType": "bytes32",
          "name": "role",
          "type": "bytes32"
        },
        {
          "indexed": true,
          "internalType": "bytes32",
          "name": "previousAdminRole",
          "type": "bytes32"
        },
        {
          "indexed": true,
          "internalType": "bytes32",
          "name": "newAdminRole",
          "type": "bytes32"
        }
      ],
      "name": "RoleAdminChanged",
      "type": "event"
    },
    {
      "anonymous": false,
      "inputs": [
        {
          "indexed": true,
          "internalType": "bytes32",
          "name": "role",
          "type": "bytes32"
        },
        {
          "indexed": true,
          "internalType": "address",
          "name": "account",
          "type": "address"
        },
        {
          "indexed": true,
          "internalType": "address",
          "name": "sender",
          "type": "address"
        }
      ],
      "name": "RoleGranted",
      "type": "event"
    },
    {
      "anonymous": false,
      "inputs": [
        {
          "indexed": true,
          "internalType": "bytes32",
          "name": "role",
          "type": "bytes32"
        },
        {
          "indexed": true,
          "internalType": "address",
          "name": "account",
          "type": "address"
        },
        {
          "indexed": true,
          "internalType": "address",
          "name": "sender",
          "type": "address"
        }
      ],
      "name": "RoleRevoked",
      "type": "event"
    },
    {
      "inputs": [],
      "name": "DEFAULT_ADMIN_ROLE",
      "outputs": [
        {
          "internalType": "bytes32",
          "name": "",
          "type": "bytes32"
        }
      ],
      "stateMutability": "view",
      "type": "function"
    },
    {
      "inputs": [],
      "name": "HARVESTER_ROLE",
      "outputs": [
        {
          "internalType": "bytes32",
          "name": "",
          "type": "bytes32"
        }
      ],
      "stateMutability": "view",
      "type": "function"
    },
    {
      "inputs": [
        {
          "internalType": "address",
          "name": "token",
          "type": "address"
        }
      ],
      "name": "_recover",
      "outputs": [],
      "stateMutability": "nonpayable",
      "type": "function"
    },
    {
      "inputs": [],
      "name": "deposit",
      "outputs": [],
      "stateMutability": "nonpayable",
      "type": "function"
    },
    {
      "inputs": [],
      "name": "factory",
      "outputs": [
        {
          "internalType": "contract IFactory",
          "name": "",
          "type": "address"
        }
      ],
      "stateMutability": "view",
      "type": "function"
    },
    {
      "inputs": [],
      "name": "finalize",
      "outputs": [],
      "stateMutability": "nonpayable",
      "type": "function"
    },
    {
      "inputs": [],
      "name": "getBlockTimestamp",
      "outputs": [
        {
          "internalType": "uint256",
          "name": "",
          "type": "uint256"
        }
      ],
      "stateMutability": "view",
      "type": "function"
    },
    {
      "inputs": [
        {
          "internalType": "bytes32",
          "name": "role",
          "type": "bytes32"
        }
      ],
      "name": "getRoleAdmin",
      "outputs": [
        {
          "internalType": "bytes32",
          "name": "",
          "type": "bytes32"
        }
      ],
      "stateMutability": "view",
      "type": "function"
    },
    {
      "inputs": [
        {
          "internalType": "bytes32",
          "name": "role",
          "type": "bytes32"
        },
        {
          "internalType": "address",
          "name": "account",
          "type": "address"
        }
      ],
      "name": "grantRole",
      "outputs": [],
      "stateMutability": "nonpayable",
      "type": "function"
    },
    {
      "inputs": [
        {
          "internalType": "address",
          "name": "to",
          "type": "address"
        }
      ],
      "name": "harvest",
      "outputs": [],
      "stateMutability": "nonpayable",
      "type": "function"
    },
    {
      "inputs": [
        {
          "internalType": "bytes32",
          "name": "role",
          "type": "bytes32"
        },
        {
          "internalType": "address",
          "name": "account",
          "type": "address"
        }
      ],
      "name": "hasRole",
      "outputs": [
        {
          "internalType": "bool",
          "name": "",
          "type": "bool"
        }
      ],
      "stateMutability": "view",
      "type": "function"
    },
    {
      "inputs": [],
      "name": "liquidityGenerator",
      "outputs": [
        {
          "internalType": "address",
          "name": "",
          "type": "address"
        }
      ],
      "stateMutability": "view",
      "type": "function"
    },
    {
      "inputs": [],
      "name": "mendi",
      "outputs": [
        {
          "internalType": "address",
          "name": "",
          "type": "address"
        }
      ],
      "stateMutability": "view",
      "type": "function"
    },
    {
      "inputs": [],
      "name": "mendiToken",
      "outputs": [
        {
          "internalType": "Token",
          "name": "",
          "type": "bytes32"
        }
      ],
      "stateMutability": "view",
      "type": "function"
    },
    {
      "inputs": [],
      "name": "mendiUSDCPool",
      "outputs": [
        {
          "internalType": "contract IPool",
          "name": "",
          "type": "address"
        }
      ],
      "stateMutability": "view",
      "type": "function"
    },
    {
      "inputs": [],
      "name": "mendiUSDCPoolToken",
      "outputs": [
        {
          "internalType": "Token",
          "name": "",
          "type": "bytes32"
        }
      ],
      "stateMutability": "view",
      "type": "function"
    },
    {
      "inputs": [
        {
          "internalType": "bytes32",
          "name": "role",
          "type": "bytes32"
        },
        {
          "internalType": "address",
          "name": "account",
          "type": "address"
        }
      ],
      "name": "renounceRole",
      "outputs": [],
      "stateMutability": "nonpayable",
      "type": "function"
    },
    {
      "inputs": [
        {
          "internalType": "bytes32",
          "name": "role",
          "type": "bytes32"
        },
        {
          "internalType": "address",
          "name": "account",
          "type": "address"
        }
      ],
      "name": "revokeRole",
      "outputs": [],
      "stateMutability": "nonpayable",
      "type": "function"
    },
    {
      "inputs": [
        {
          "internalType": "bytes4",
          "name": "interfaceId",
          "type": "bytes4"
        }
      ],
      "name": "supportsInterface",
      "outputs": [
        {
          "internalType": "bool",
          "name": "",
          "type": "bool"
        }
      ],
      "stateMutability": "view",
      "type": "function"
    },
    {
      "inputs": [],
      "name": "usdc",
      "outputs": [
        {
          "internalType": "address",
          "name": "",
          "type": "address"
        }
      ],
      "stateMutability": "view",
      "type": "function"
    },
    {
      "inputs": [],
      "name": "usdcToken",
      "outputs": [
        {
          "internalType": "Token",
          "name": "",
          "type": "bytes32"
        }
      ],
      "stateMutability": "view",
      "type": "function"
    },
    {
      "inputs": [],
      "name": "vault",
      "outputs": [
        {
          "internalType": "contract IVault",
          "name": "",
          "type": "address"
        }
      ],
      "stateMutability": "view",
      "type": "function"
    },
    {
      "inputs": [],
      "name": "vc",
      "outputs": [
        {
          "internalType": "address",
          "name": "",
          "type": "address"
        }
      ],
      "stateMutability": "view",
      "type": "function"
    },
    {
      "inputs": [],
      "name": "vcToken",
      "outputs": [
        {
          "internalType": "Token",
          "name": "",
          "type": "bytes32"
        }
      ],
      "stateMutability": "view",
      "type": "function"
    },
    {
      "inputs": [
        {
          "internalType": "address",
          "name": "to",
          "type": "address"
        }
      ],
      "name": "withdraw",
      "outputs": [],
      "stateMutability": "nonpayable",
      "type": "function"
    }
  ],
  "transactionHash": "0xb7c005b8e783263644a03c099314eda76d3e4c88648bad085928c0efef7d7df1",
  "args": [
    "0x55231F67b289815483a037D459877D85819e9144",
    "0x1d0188c4B276A09366D05d6Be06aF61a73bC7535",
    "0xBe6c6A389b82306e88d74d1692B67285A9db9A47",
    "0x43E8809ea748EFf3204ee01F08872F063e44065f",
    "0x176211869ca2b568f2a7d4ee941e073a821ee1ff",
    "0xcc22F6AA610D1b2a0e89EF228079cB3e1831b1D1"
  ],
  "numDeployments": 1,
  "solcInputHash": "d64cd7ba315dfc138d7ff0705d878448",
  "bytecode": "0x6101e06040527f3fc733b4d20d27a28452ddf0e9351aced28242fe03389a653cdb783955316b9b6003553480156200003657600080fd5b506040516200242738038062002427833981016040819052620000599162000214565b620000666000336200015a565b6001600160a01b0386811660805285811660a05284811660c05283811660e0819052838216610100529082166101205261014052610100516001600160a01b031661016052610120516001600160a01b03166101805260c05161014051610160516040516308311f8f60e21b8152600481019290925260248201526001600160a01b03909116906320c47e3c90604401602060405180830381865afa15801562000114573d6000803e3d6000fd5b505050506040513d601f19601f820116820180604052508101906200013a9190620002a8565b6001600160a01b03166101a08190526101c05250620002cf945050505050565b6000828152602081815260408083206001600160a01b038516845290915290205460ff16620001f7576000828152602081815260408083206001600160a01b03851684529091529020805460ff19166001179055620001b63390565b6001600160a01b0316816001600160a01b0316837f2f8788117e7eff1d82e926ec794901d17c78024a50270940304540a733656f0d60405160405180910390a45b5050565b6001600160a01b03811681146200021157600080fd5b50565b60008060008060008060c087890312156200022e57600080fd5b86516200023b81620001fb565b60208801519096506200024e81620001fb565b60408801519095506200026181620001fb565b60608801519094506200027481620001fb565b60808801519093506200028781620001fb565b60a08801519092506200029a81620001fb565b809150509295509295509295565b600060208284031215620002bb57600080fd5b8151620002c881620001fb565b9392505050565b60805160a05160c05160e05161010051610120516101405161016051610180516101a0516101c051611ff86200042f60003960008181610337015281816106a401528181610b0601528181610e0301528181610ec401528181610f330152610f6b015260008181610278015281816108c801528181610a4901528181610ae301528181610d760152610f100152600081816101a5015281816104eb015281816108eb0152610b330152600081816101ef01528181610d2a01528181610dcd0152610e7a0152600081816103b901528181610ce001528181610d980152610e3001526000610216015260006102c501526000818161030701526107fc015260006103e001526000818161042201528181610d0101528181610d4b01528181610e5101528181610e9b01528181610ee501528181610f8c015281816111a50152818161145a01526117b701526000818161036401526105c30152611ff86000f3fe608060405234801561001057600080fd5b50600436106101735760003560e01c80635f33f281116100de578063a217fddf11610097578063c45a015511610071578063c45a0155146103db578063d0e30db014610402578063d547741f1461040a578063fbfa77cf1461041d57600080fd5b8063a217fddf14610399578063ba4af753146103a1578063bab56ac3146103b457600080fd5b80635f33f2811461030257806363a560ec1461032957806378f93bf414610332578063796b89b9146103595780637fbf33991461035f57806391d148541461038657600080fd5b80632512c108116101305780632512c108146102735780632f2ff15d1461029a57806336568abe146102ad5780633e413bee146102c05780634bb278f3146102e757806351cff8d9146102ef57600080fd5b806301ffc9a71461017857806303851ea9146101a05780630e5c011e146101d557806311eac855146101ea578063188cdb3714610211578063248a9ca314610250575b600080fd5b61018b610186366004611b31565b610444565b60405190151581526020015b60405180910390f35b6101c77f000000000000000000000000000000000000000000000000000000000000000081565b604051908152602001610197565b6101e86101e3366004611b77565b61047b565b005b6101c77f000000000000000000000000000000000000000000000000000000000000000081565b6102387f000000000000000000000000000000000000000000000000000000000000000081565b6040516001600160a01b039091168152602001610197565b6101c761025e366004611b92565b60009081526020819052604090206001015490565b6102387f000000000000000000000000000000000000000000000000000000000000000081565b6101e86102a8366004611bab565b610514565b6101e86102bb366004611bab565b61053e565b6102387f000000000000000000000000000000000000000000000000000000000000000081565b6101e86105b8565b6101e86102fd366004611b77565b61062e565b6102387f000000000000000000000000000000000000000000000000000000000000000081565b6101c760035481565b6101c77f000000000000000000000000000000000000000000000000000000000000000081565b426101c7565b6102387f000000000000000000000000000000000000000000000000000000000000000081565b61018b610394366004611bab565b6106c9565b6101c7600081565b6101e86103af366004611b77565b6106f2565b6101c77f000000000000000000000000000000000000000000000000000000000000000081565b6102387f000000000000000000000000000000000000000000000000000000000000000081565b6101e8610791565b6101e8610418366004611bab565b61088f565b6102387f000000000000000000000000000000000000000000000000000000000000000081565b60006001600160e01b03198216637965db0b60e01b148061047557506301ffc9a760e01b6001600160e01b03198316145b92915050565b600354610487816108b4565b60025460ff166104de5760405162461bcd60e51b815260206004820152601b60248201527f4c47454465706f7369746f723a204e4f545f4445504f5349544544000000000060448201526064015b60405180910390fd5b6104e66108c1565b6105107f000000000000000000000000000000000000000000000000000000000000000083610915565b5050565b60008281526020819052604090206001015461052f816108b4565b6105398383610948565b505050565b6001600160a01b03811633146105ae5760405162461bcd60e51b815260206004820152602f60248201527f416363657373436f6e74726f6c3a2063616e206f6e6c792072656e6f756e636560448201526e103937b632b9903337b91039b2b63360891b60648201526084016104d5565b61051082826109cc565b336001600160a01b037f000000000000000000000000000000000000000000000000000000000000000016146106285760405162461bcd60e51b81526020600482015260156024820152744c47454465706f7369746f723a204f4e4c595f4c4760581b60448201526064016104d5565b42600155565b6000610639816108b4565b6001546106499062ed4e00611bed565b42116106975760405162461bcd60e51b815260206004820152601760248201527f4c47454465706f7369746f723a204c505f4c4f434b454400000000000000000060448201526064016104d5565b61069f610a31565b6105107f000000000000000000000000000000000000000000000000000000000000000083610915565b6000918252602082815260408084206001600160a01b0393909316845291905290205460ff1690565b60006106fd816108b4565b600154158061071a57506001546107179062093a80611bed565b42115b6107665760405162461bcd60e51b815260206004820152601e60248201527f4c47454465706f7369746f723a204e4f545f5245434f5645525f54494d45000060448201526064016104d5565b600061077b6001600160a01b03841630610b5b565b90506105396001600160a01b0384163383610bd0565b6000600154116107e35760405162461bcd60e51b815260206004820152601b60248201527f4c47454465706f7369746f723a204e4f545f46494e414c495a4544000000000060448201526064016104d5565b6a02116545850052128000006108226001600160a01b037f00000000000000000000000000000000000000000000000000000000000000001630610b5b565b10156108705760405162461bcd60e51b815260206004820152601e60248201527f4c47454465706f7369746f723a204e4f545f454e4f5547485f4d454e4449000060448201526064016104d5565b610878610cdb565b610880610ebf565b6002805460ff19166001179055565b6000828152602081905260409020600101546108aa816108b4565b61053983836109cc565b6108be8133610fb0565b50565b61091360007f000000000000000000000000000000000000000000000000000000000000000060017f000000000000000000000000000000000000000000000000000000000000000060016000611009565b565b61051081610937306001600160a01b0386165b6001600160a01b031690610b5b565b6001600160a01b0385169190610bd0565b61095282826106c9565b610510576000828152602081815260408083206001600160a01b03851684529091529020805460ff191660011790556109883390565b6001600160a01b0316816001600160a01b0316837f2f8788117e7eff1d82e926ec794901d17c78024a50270940304540a733656f0d60405160405180910390a45050565b6109d682826106c9565b15610510576000828152602081815260408083206001600160a01b0385168085529252808320805460ff1916905551339285917ff6391f5c32d9c69d2a47ea670b442974b53935d1edc7fd64eb21e047a839171b9190a45050565b60405163a5b39cfb60e01b81523060048201526000907f00000000000000000000000000000000000000000000000000000000000000006001600160a01b03169063a5b39cfb90602401600060405180830381865afa158015610a98573d6000803e3d6000fd5b505050506040513d6000823e601f3d908101601f19168201604052610ac09190810190611c1b565b600081518110610ad257610ad2611cd9565b602002602001015190506108be60007f000000000000000000000000000000000000000000000000000000000000000060017f0000000000000000000000000000000000000000000000000000000000000000600086610b3190611cef565b7f000000000000000000000000000000000000000000000000000000000000000060016000611244565b6040516370a0823160e01b81526001600160a01b038281166004830152600091908416906370a0823190602401602060405180830381865afa158015610ba5573d6000803e3d6000fd5b505050506040513d601f19601f82011682018060405250810190610bc99190611d1f565b9392505050565b604080516001600160a01b038481166024830152604480830185905283518084039091018152606490920183526020820180516001600160e01b031663a9059cbb60e01b1790529151600092839290871691610c2c9190611d68565b6000604051808303816000865af19150503d8060008114610c69576040519150601f19603f3d011682016040523d82523d6000602084013e610c6e565b606091505b5091509150818015610c98575080511580610c98575080806020019051810190610c989190611d84565b610cd45760405162461bcd60e51b815260206004820152600d60248201526c10b9b0b332aa3930b739b332b960991b60448201526064016104d5565b5050505050565b610d257f00000000000000000000000000000000000000000000000000000000000000007f00000000000000000000000000000000000000000000000000000000000000006114fc565b610d6f7f00000000000000000000000000000000000000000000000000000000000000007f00000000000000000000000000000000000000000000000000000000000000006114fc565b610e2b60007f0000000000000000000000000000000000000000000000000000000000000000817f000000000000000000000000000000000000000000000000000000000000000081610dcb306001600160a01b038416610928565b7f00000000000000000000000000000000000000000000000000000000000000006000610e01306001600160a01b038416610928565b7f00000000000000000000000000000000000000000000000000000000000000006001600061152e565b610e757f00000000000000000000000000000000000000000000000000000000000000007f000000000000000000000000000000000000000000000000000000000000000061186b565b6109137f00000000000000000000000000000000000000000000000000000000000000007f000000000000000000000000000000000000000000000000000000000000000061186b565b610f097f00000000000000000000000000000000000000000000000000000000000000007f00000000000000000000000000000000000000000000000000000000000000006114fc565b610f6660007f000000000000000000000000000000000000000000000000000000000000000060017f000000000000000000000000000000000000000000000000000000000000000083610b31306001600160a01b038416610928565b6109137f00000000000000000000000000000000000000000000000000000000000000007f000000000000000000000000000000000000000000000000000000000000000061186b565b610fba82826106c9565b61051057610fc781611880565b610fd2836020611892565b604051602001610fe3929190611da6565b60408051601f198184030181529082905262461bcd60e51b82526104d591600401611e47565b6040805160018082528183019092526000916020808301908036833750506040805160018082528183019092529293506000929150602082015b6040805160608082018352600082526020808301829052928201528252600019909201910181611043579050509050848260008151811061108657611086611cd9565b602002602001018181525050866001600160a01b031660001b8660f81b6001600160f81b03191617816000815181106110c1576110c1611cd9565b60209081029190910101515260408051600180825281830190925290816020016020820280368337019050508160008151811061110057611100611cd9565b602002602001015160200181905250604051806020016040528060008152508160008151811061113257611132611cd9565b602090810291909101015160400152805160ff60f01b60f086901b166001600160801b0385161790829060009061116b5761116b611cd9565b60200260200101516020015160008151811061118957611189611cd9565b60209081029190910101526040805160018082528183019092527f00000000000000000000000000000000000000000000000000000000000000006001600160a01b03169163d3115a8a918b9186919081602001602082028036833701905050856040518563ffffffff1660e01b815260040161120893929190611f07565b6000604051808303818588803b15801561122157600080fd5b505af1158015611235573d6000803e3d6000fd5b50505050505050505050505050565b60408051600280825260608201835260009260208301908036833750506040805160018082528183019092529293506000929150602082015b604080516060808201835260008252602080830182905292820152825260001990920191018161127d57905050905087826000815181106112c0576112c0611cd9565b60200260200101818152505084826001815181106112e0576112e0611cd9565b602002602001018181525050896001600160a01b031660001b8960f81b6001600160f81b031916178160008151811061131b5761131b611cd9565b6020908102919091010151526040805160028082526060820190925290816020016020820280368337019050508160008151811061135b5761135b611cd9565b602002602001015160200181905250604051806020016040528060008152508160008151811061138d5761138d611cd9565b602090810291909101015160400152805160ff60f01b60f089901b166001600160801b038816179082906000906113c6576113c6611cd9565b6020026020010151602001516000815181106113e4576113e4611cd9565b6020908102919091010152805160ff60f01b60f086901b166001600160801b03851617600160f81b1790829060009061141f5761141f611cd9565b60200260200101516020015160018151811061143d5761143d611cd9565b6020908102919091010152604080516002808252606082019092527f00000000000000000000000000000000000000000000000000000000000000006001600160a01b03169163d3115a8a918e9186919081602001602082028036833701905050856040518563ffffffff1660e01b81526004016114bd93929190611f07565b6000604051808303818588803b1580156114d657600080fd5b505af11580156114ea573d6000803e3d6000fd5b50505050505050505050505050505050565b61051081611513306001600160a01b038616610928565b6001600160a01b0385165b6001600160a01b03169190611a2e565b604080516003808252608082019092526000916020820160608036833750506040805160018082528183019092529293506000929150602082015b60408051606080820183526000825260208083018290529282015282526000199092019101816115695790505090508a826000815181106115ac576115ac611cd9565b60200260200101818152505087826001815181106115cc576115cc611cd9565b60200260200101818152505084826002815181106115ec576115ec611cd9565b6020026020010181815250508c6001600160a01b031660001b8c60f81b6001600160f81b031916178160008151811061162757611627611cd9565b6020908102919091010151526040805160038082526080820190925290816020016020820280368337019050508160008151811061166757611667611cd9565b602002602001015160200181905250604051806020016040528060008152508160008151811061169957611699611cd9565b602090810291909101015160400152805160ff60f01b60f08c901b166001600160801b038b16179082906000906116d2576116d2611cd9565b6020026020010151602001516000815181106116f0576116f0611cd9565b6020908102919091010152805160ff60f01b60f089901b166001600160801b03881617600160f81b1790829060009061172b5761172b611cd9565b60200260200101516020015160018151811061174957611749611cd9565b6020908102919091010152805160ff60f01b60f086901b166001600160801b03851617600160f91b1790829060009061178457611784611cd9565b6020026020010151602001516002815181106117a2576117a2611cd9565b60209081029190910101526001600160a01b037f00000000000000000000000000000000000000000000000000000000000000001663d3115a8a8f846003604051908082528060200260200182016040528015611809578160200160208202803683370190505b50856040518563ffffffff1660e01b815260040161182993929190611f07565b6000604051808303818588803b15801561184257600080fd5b505af1158015611856573d6000803e3d6000fd5b50505050505050505050505050505050505050565b6105108160006001600160a01b03851661151e565b60606104756001600160a01b03831660145b606060006118a1836002611f8c565b6118ac906002611bed565b67ffffffffffffffff8111156118c4576118c4611c05565b6040519080825280601f01601f1916602001820160405280156118ee576020820181803683370190505b509050600360fc1b8160008151811061190957611909611cd9565b60200101906001600160f81b031916908160001a905350600f60fb1b8160018151811061193857611938611cd9565b60200101906001600160f81b031916908160001a905350600061195c846002611f8c565b611967906001611bed565b90505b60018111156119df576f181899199a1a9b1b9c1cb0b131b232b360811b85600f166010811061199b5761199b611cd9565b1a60f81b8282815181106119b1576119b1611cd9565b60200101906001600160f81b031916908160001a90535060049490941c936119d881611fab565b905061196a565b508315610bc95760405162461bcd60e51b815260206004820181905260248201527f537472696e67733a20686578206c656e67746820696e73756666696369656e7460448201526064016104d5565b604080516001600160a01b038481166024830152604480830185905283518084039091018152606490920183526020820180516001600160e01b031663095ea7b360e01b1790529151600092839290871691611a8a9190611d68565b6000604051808303816000865af19150503d8060008114611ac7576040519150601f19603f3d011682016040523d82523d6000602084013e611acc565b606091505b5091509150818015611af6575080511580611af6575080806020019051810190611af69190611d84565b610cd45760405162461bcd60e51b815260206004820152600c60248201526b2173616665417070726f766560a01b60448201526064016104d5565b600060208284031215611b4357600080fd5b81356001600160e01b031981168114610bc957600080fd5b80356001600160a01b0381168114611b7257600080fd5b919050565b600060208284031215611b8957600080fd5b610bc982611b5b565b600060208284031215611ba457600080fd5b5035919050565b60008060408385031215611bbe57600080fd5b82359150611bce60208401611b5b565b90509250929050565b634e487b7160e01b600052601160045260246000fd5b60008219821115611c0057611c00611bd7565b500190565b634e487b7160e01b600052604160045260246000fd5b60006020808385031215611c2e57600080fd5b825167ffffffffffffffff80821115611c4657600080fd5b818501915085601f830112611c5a57600080fd5b815181811115611c6c57611c6c611c05565b8060051b604051601f19603f83011681018181108582111715611c9157611c91611c05565b604052918252848201925083810185019188831115611caf57600080fd5b938501935b82851015611ccd57845184529385019392850192611cb4565b98975050505050505050565b634e487b7160e01b600052603260045260246000fd5b600081600f0b6f7fffffffffffffffffffffffffffffff19811415611d1657611d16611bd7565b60000392915050565b600060208284031215611d3157600080fd5b5051919050565b60005b83811015611d53578181015183820152602001611d3b565b83811115611d62576000848401525b50505050565b60008251611d7a818460208701611d38565b9190910192915050565b600060208284031215611d9657600080fd5b81518015158114610bc957600080fd5b7f416363657373436f6e74726f6c3a206163636f756e7420000000000000000000815260008351611dde816017850160208801611d38565b7001034b99036b4b9b9b4b733903937b6329607d1b6017918401918201528351611e0f816028840160208801611d38565b01602801949350505050565b60008151808452611e33816020860160208601611d38565b601f01601f19169290920160200192915050565b602081526000610bc96020830184611e1b565b6000815180845260208085019450848260051b86018286016000805b86811015611ef9578484038a528251805185528681015160608887018190528151908701819052608087019189019085905b80821015611ec85782518452928a0192918a019160019190910190611ea8565b50505060408083015192508682038188015250611ee58183611e1b565b9b88019b9550505091850191600101611e76565b509198975050505050505050565b606080825284519082018190526000906020906080840190828801845b82811015611f4057815184529284019290840190600101611f24565b5050508381038285015285518082528683019183019060005b81811015611f78578351600f0b83529284019291840191600101611f59565b50508481036040860152611ccd8187611e5a565b6000816000190483118215151615611fa657611fa6611bd7565b500290565b600081611fba57611fba611bd7565b50600019019056fea26469706673582212206cc4793a62bfd9e5c5b65f3cc61e87e770a423a735de682a17e99bc803112d5964736f6c634300080a0033",
  "devdoc": {
    "kind": "dev",
    "methods": {
      "getRoleAdmin(bytes32)": {
        "details": "Returns the admin role that controls `role`. See {grantRole} and {revokeRole}. To change a role's admin, use {_setRoleAdmin}."
      },
      "grantRole(bytes32,address)": {
        "details": "Grants `role` to `account`. If `account` had not been already granted `role`, emits a {RoleGranted} event. Requirements: - the caller must have ``role``'s admin role. May emit a {RoleGranted} event."
      },
      "hasRole(bytes32,address)": {
        "details": "Returns `true` if `account` has been granted `role`."
      },
      "renounceRole(bytes32,address)": {
        "details": "Revokes `role` from the calling account. Roles are often managed via {grantRole} and {revokeRole}: this function's purpose is to provide a mechanism for accounts to lose their privileges if they are compromised (such as when a trusted device is misplaced). If the calling account had been revoked `role`, emits a {RoleRevoked} event. Requirements: - the caller must be `account`. May emit a {RoleRevoked} event."
      },
      "revokeRole(bytes32,address)": {
        "details": "Revokes `role` from `account`. If `account` had been granted `role`, emits a {RoleRevoked} event. Requirements: - the caller must have ``role``'s admin role. May emit a {RoleRevoked} event."
      },
      "supportsInterface(bytes4)": {
        "details": "See {IERC165-supportsInterface}."
      }
    },
    "version": 1
  },
  "userdoc": {
    "kind": "user",
    "methods": {},
    "version": 1
  },
  "storageLayout": {
    "storage": [
      {
        "astId": 24,
        "contract": "contracts/LGEDepositor.sol:LGEDepositor",
        "label": "_roles",
        "offset": 0,
        "slot": "0",
        "type": "t_mapping(t_bytes32,t_struct(RoleData)19_storage)"
      },
      {
        "astId": 2848,
        "contract": "contracts/LGEDepositor.sol:LGEDepositor",
        "label": "finalizeAt",
        "offset": 0,
        "slot": "1",
        "type": "t_uint256"
      },
      {
        "astId": 2850,
        "contract": "contracts/LGEDepositor.sol:LGEDepositor",
        "label": "deposited",
        "offset": 0,
        "slot": "2",
        "type": "t_bool"
      },
      {
        "astId": 2870,
        "contract": "contracts/LGEDepositor.sol:LGEDepositor",
        "label": "HARVESTER_ROLE",
        "offset": 0,
        "slot": "3",
        "type": "t_bytes32"
      }
    ],
    "types": {
      "t_address": {
        "encoding": "inplace",
        "label": "address",
        "numberOfBytes": "20"
      },
      "t_bool": {
        "encoding": "inplace",
        "label": "bool",
        "numberOfBytes": "1"
      },
      "t_bytes32": {
        "encoding": "inplace",
        "label": "bytes32",
        "numberOfBytes": "32"
      },
      "t_mapping(t_address,t_bool)": {
        "encoding": "mapping",
        "key": "t_address",
        "label": "mapping(address => bool)",
        "numberOfBytes": "32",
        "value": "t_bool"
      },
      "t_mapping(t_bytes32,t_struct(RoleData)19_storage)": {
        "encoding": "mapping",
        "key": "t_bytes32",
        "label": "mapping(bytes32 => struct AccessControl.RoleData)",
        "numberOfBytes": "32",
        "value": "t_struct(RoleData)19_storage"
      },
      "t_struct(RoleData)19_storage": {
        "encoding": "inplace",
        "label": "struct AccessControl.RoleData",
        "members": [
          {
            "astId": 16,
            "contract": "contracts/LGEDepositor.sol:LGEDepositor",
            "label": "members",
            "offset": 0,
            "slot": "0",
            "type": "t_mapping(t_address,t_bool)"
          },
          {
            "astId": 18,
            "contract": "contracts/LGEDepositor.sol:LGEDepositor",
            "label": "adminRole",
            "offset": 0,
            "slot": "1",
            "type": "t_bytes32"
          }
        ],
        "numberOfBytes": "64"
      },
      "t_uint256": {
        "encoding": "inplace",
        "label": "uint256",
        "numberOfBytes": "32"
      }
    }
  }
}