{
  "address": "0x55231F67b289815483a037D459877D85819e9144",
  "abi": [
    {
      "inputs": [
        {
          "components": [
            {
              "internalType": "address",
              "name": "admin_",
              "type": "address"
            },
            {
              "internalType": "address",
              "name": "mendi_",
              "type": "address"
            },
            {
              "internalType": "address",
              "name": "usdc_",
              "type": "address"
            },
            {
              "internalType": "address",
              "name": "reservesManager_",
              "type": "address"
            },
            {
              "internalType": "address",
              "name": "distributor_",
              "type": "address"
            },
            {
              "internalType": "address",
              "name": "bonusDistributor_",
              "type": "address"
            },
            {
              "internalType": "uint256",
              "name": "periodBegin_",
              "type": "uint256"
            },
            {
              "internalType": "uint256",
              "name": "periodDuration_",
              "type": "uint256"
            },
            {
              "internalType": "uint256",
              "name": "bonusDuration_",
              "type": "uint256"
            }
          ],
          "internalType": "struct LiquidityGenerator.ConstuctorParams",
          "name": "params_",
          "type": "tuple"
        }
      ],
      "stateMutability": "nonpayable",
      "type": "constructor"
    },
    {
      "anonymous": false,
      "inputs": [
        {
          "indexed": false,
          "internalType": "address",
          "name": "prevAdmin",
          "type": "address"
        },
        {
          "indexed": false,
          "internalType": "address",
          "name": "newAdmin",
          "type": "address"
        }
      ],
      "name": "AdminChanged",
      "type": "event"
    },
    {
      "anonymous": false,
      "inputs": [
        {
          "indexed": true,
          "internalType": "address",
          "name": "sender",
          "type": "address"
        },
        {
          "indexed": false,
          "internalType": "uint256",
          "name": "amount",
          "type": "uint256"
        },
        {
          "indexed": false,
          "internalType": "uint256",
          "name": "distributorTotalShares",
          "type": "uint256"
        },
        {
          "indexed": false,
          "internalType": "uint256",
          "name": "bonusDistributorTotalShares",
          "type": "uint256"
        },
        {
          "indexed": false,
          "internalType": "uint256",
          "name": "newShares",
          "type": "uint256"
        },
        {
          "indexed": false,
          "internalType": "uint256",
          "name": "newBonusShares",
          "type": "uint256"
        }
      ],
      "name": "Deposit",
      "type": "event"
    },
    {
      "anonymous": false,
      "inputs": [
        {
          "indexed": false,
          "internalType": "uint256",
          "name": "amountMendi",
          "type": "uint256"
        },
        {
          "indexed": false,
          "internalType": "uint256",
          "name": "amountUSDC",
          "type": "uint256"
        }
      ],
      "name": "Finalized",
      "type": "event"
    },
    {
      "anonymous": false,
      "inputs": [
        {
          "indexed": false,
          "internalType": "address",
          "name": "prevPendingAdmin",
          "type": "address"
        },
        {
          "indexed": false,
          "internalType": "address",
          "name": "newPendingAdmin",
          "type": "address"
        }
      ],
      "name": "PendingAdminChanged",
      "type": "event"
    },
    {
      "anonymous": false,
      "inputs": [
        {
          "indexed": false,
          "internalType": "address",
          "name": "prevReservesManager",
          "type": "address"
        },
        {
          "indexed": false,
          "internalType": "address",
          "name": "newReservesManager",
          "type": "address"
        }
      ],
      "name": "ReservesManagerChanged",
      "type": "event"
    },
    {
      "inputs": [],
      "name": "_acceptAdmin",
      "outputs": [],
      "stateMutability": "nonpayable",
      "type": "function"
    },
    {
      "inputs": [
        {
          "internalType": "address",
          "name": "admin_",
          "type": "address"
        }
      ],
      "name": "_setAdmin",
      "outputs": [],
      "stateMutability": "nonpayable",
      "type": "function"
    },
    {
      "inputs": [
        {
          "internalType": "address",
          "name": "reservesManager_",
          "type": "address"
        }
      ],
      "name": "_setReservesManager",
      "outputs": [],
      "stateMutability": "nonpayable",
      "type": "function"
    },
    {
      "inputs": [],
      "name": "admin",
      "outputs": [
        {
          "internalType": "address",
          "name": "",
          "type": "address"
        }
      ],
      "stateMutability": "view",
      "type": "function"
    },
    {
      "inputs": [],
      "name": "bonusDistributor",
      "outputs": [
        {
          "internalType": "address",
          "name": "",
          "type": "address"
        }
      ],
      "stateMutability": "view",
      "type": "function"
    },
    {
      "inputs": [
        {
          "internalType": "address",
          "name": "account",
          "type": "address"
        }
      ],
      "name": "bonusDistributorRecipients",
      "outputs": [
        {
          "internalType": "uint256",
          "name": "shares",
          "type": "uint256"
        },
        {
          "internalType": "uint256",
          "name": "lastShareIndex",
          "type": "uint256"
        },
        {
          "internalType": "uint256",
          "name": "credit",
          "type": "uint256"
        }
      ],
      "stateMutability": "view",
      "type": "function"
    },
    {
      "inputs": [],
      "name": "bonusDistributorTotalShares",
      "outputs": [
        {
          "internalType": "uint256",
          "name": "totalShares",
          "type": "uint256"
        }
      ],
      "stateMutability": "view",
      "type": "function"
    },
    {
      "inputs": [],
      "name": "bonusEnd",
      "outputs": [
        {
          "internalType": "uint256",
          "name": "",
          "type": "uint256"
        }
      ],
      "stateMutability": "view",
      "type": "function"
    },
    {
      "inputs": [
        {
          "internalType": "uint256",
          "name": "amountUSDC",
          "type": "uint256"
        }
      ],
      "name": "deposit",
      "outputs": [],
      "stateMutability": "payable",
      "type": "function"
    },
    {
      "inputs": [],
      "name": "distributor",
      "outputs": [
        {
          "internalType": "address",
          "name": "",
          "type": "address"
        }
      ],
      "stateMutability": "view",
      "type": "function"
    },
    {
      "inputs": [
        {
          "internalType": "address",
          "name": "account",
          "type": "address"
        }
      ],
      "name": "distributorRecipients",
      "outputs": [
        {
          "internalType": "uint256",
          "name": "shares",
          "type": "uint256"
        },
        {
          "internalType": "uint256",
          "name": "lastShareIndex",
          "type": "uint256"
        },
        {
          "internalType": "uint256",
          "name": "credit",
          "type": "uint256"
        }
      ],
      "stateMutability": "view",
      "type": "function"
    },
    {
      "inputs": [],
      "name": "distributorTotalShares",
      "outputs": [
        {
          "internalType": "uint256",
          "name": "totalShares",
          "type": "uint256"
        }
      ],
      "stateMutability": "view",
      "type": "function"
    },
    {
      "inputs": [],
      "name": "finalize",
      "outputs": [],
      "stateMutability": "nonpayable",
      "type": "function"
    },
    {
      "inputs": [],
      "name": "finalized",
      "outputs": [
        {
          "internalType": "bool",
          "name": "",
          "type": "bool"
        }
      ],
      "stateMutability": "view",
      "type": "function"
    },
    {
      "inputs": [],
      "name": "getBlockTimestamp",
      "outputs": [
        {
          "internalType": "uint256",
          "name": "",
          "type": "uint256"
        }
      ],
      "stateMutability": "view",
      "type": "function"
    },
    {
      "inputs": [],
      "name": "mendi",
      "outputs": [
        {
          "internalType": "address",
          "name": "",
          "type": "address"
        }
      ],
      "stateMutability": "view",
      "type": "function"
    },
    {
      "inputs": [],
      "name": "pendingAdmin",
      "outputs": [
        {
          "internalType": "address",
          "name": "",
          "type": "address"
        }
      ],
      "stateMutability": "view",
      "type": "function"
    },
    {
      "inputs": [],
      "name": "periodBegin",
      "outputs": [
        {
          "internalType": "uint256",
          "name": "",
          "type": "uint256"
        }
      ],
      "stateMutability": "view",
      "type": "function"
    },
    {
      "inputs": [],
      "name": "periodEnd",
      "outputs": [
        {
          "internalType": "uint256",
          "name": "",
          "type": "uint256"
        }
      ],
      "stateMutability": "view",
      "type": "function"
    },
    {
      "inputs": [],
      "name": "reservesManager",
      "outputs": [
        {
          "internalType": "address",
          "name": "",
          "type": "address"
        }
      ],
      "stateMutability": "view",
      "type": "function"
    },
    {
      "inputs": [],
      "name": "usdc",
      "outputs": [
        {
          "internalType": "address",
          "name": "",
          "type": "address"
        }
      ],
      "stateMutability": "view",
      "type": "function"
    },
    {
      "stateMutability": "payable",
      "type": "receive"
    }
  ],
  "transactionHash": "0x4244511ba0c1f9b49fcddb0bf6874e6f3a16e38923f7bc6e3d82d9217e112a32",
  "args": [
    [
      "0x57cd331C7b2c7582625810465Ea3CF9bdcA21236",
      "0x43E8809ea748EFf3204ee01F08872F063e44065f",
      "0x176211869ca2b568f2a7d4ee941e073a821ee1ff",
      "0xe3CDa0A0896b70F0eBC6A1848096529AA7AEe9eE",
      "0x5df2107A5b5e7B0b19DD7dED7470e8d9792BC434",
      "0x716F2de8A4dE036FFe2b806A2948060A6f1053f5",
      1691672400,
      604800,
      86400
    ]
  ],
  "numDeployments": 1,
  "solcInputHash": "d64cd7ba315dfc138d7ff0705d878448",
  "bytecode": "0x6101606040526000805460ff191690553480156200001c57600080fd5b5060405162001779380380620017798339810160408190526200003f9162000261565b60008160e0015111620000ad5760405162461bcd60e51b815260206004820152602b60248201527f4c697175696469747947656e657261746f723a20494e56414c49445f5045524960448201526a27a22fa22aa920aa24a7a760a91b60648201526084015b60405180910390fd5b6000816101000151118015620000cc57508060e0015181610100015111155b6200012d5760405162461bcd60e51b815260206004820152602a60248201527f4c697175696469747947656e657261746f723a20494e56414c49445f424f4e5560448201526929afa22aa920aa24a7a760b11b6064820152608401620000a4565b805160008054610100600160a81b0319166101006001600160a01b03938416810291909117909155602080840151831660809081526040850151841660a09081526060860151600280546001600160a01b03191691871691909117905590850151841660c09081529085015190931660e09081529284018051909252918301519051620001c692909190620001f7811b6200101d17901c565b6101205261010081015160c0820151620001ec91620001f7602090811b6200101d17901c565b61014052506200033c565b600062000205828462000315565b9392505050565b60405161012081016001600160401b03811182821017156200023e57634e487b7160e01b600052604160045260246000fd5b60405290565b80516001600160a01b03811681146200025c57600080fd5b919050565b600061012082840312156200027557600080fd5b6200027f6200020c565b6200028a8362000244565b81526200029a6020840162000244565b6020820152620002ad6040840162000244565b6040820152620002c06060840162000244565b6060820152620002d36080840162000244565b6080820152620002e660a0840162000244565b60a082015260c083015160c082015260e083015160e08201526101008084015181830152508091505092915050565b600082198211156200033757634e487b7160e01b600052601160045260246000fd5b500190565b60805160a05160c05160e051610100516101205161014051611372620004076000396000818161036c0152610b6e0152600081816102a1015281816105cf015261096a0152600081816101d4015281816108fa0152610ef70152600081816103b5015281816107930152818161089b01528181610af20152610bbd0152600081816104260152818161081201528181610c3a01528181610cde0152610ec4015260008181610258015281816106900152610aaf0152600081816102d5015261065101526113726000f3fe60806040526004361061012e5760003560e01c806384d572b4116100ab578063b6b55f251161006f578063b6b55f2514610401578063bfe1092814610414578063e9c714f214610448578063ea988b591461045d578063eb5ab75f1461047d578063f851a4401461049d57600080fd5b806384d572b4146103455780638bc85b031461035a578063a4fa00e01461038e578063b04c1e02146103a3578063b3f05b97146103d757600080fd5b80634bb278f3116100f25780634bb278f31461027a578063506ec0951461028f5780635f33f281146102c357806366082ffc146102f7578063796b89b91461033257600080fd5b806326782247146101855780632c995cae146101c2578063345ef941146102045780633a74a767146102245780633e413bee1461024657600080fd5b366101805760405162461bcd60e51b815260206004820152601c60248201527f4c697175696469747947656e657261746f723a204241445f43414c4c0000000060448201526064015b60405180910390fd5b600080fd5b34801561019157600080fd5b506001546101a5906001600160a01b031681565b6040516001600160a01b0390911681526020015b60405180910390f35b3480156101ce57600080fd5b506101f67f000000000000000000000000000000000000000000000000000000000000000081565b6040519081526020016101b9565b34801561021057600080fd5b506002546101a5906001600160a01b031681565b34801561023057600080fd5b5061024461023f3660046111b6565b6104c2565b005b34801561025257600080fd5b506101a57f000000000000000000000000000000000000000000000000000000000000000081565b34801561028657600080fd5b50610244610579565b34801561029b57600080fd5b506101f67f000000000000000000000000000000000000000000000000000000000000000081565b3480156102cf57600080fd5b506101a57f000000000000000000000000000000000000000000000000000000000000000081565b34801561030357600080fd5b506103176103123660046111b6565b61076d565b604080519384526020840192909252908201526060016101b9565b34801561033e57600080fd5b50426101f6565b34801561035157600080fd5b506101f661080e565b34801561036657600080fd5b506101f67f000000000000000000000000000000000000000000000000000000000000000081565b34801561039a57600080fd5b506101f6610897565b3480156103af57600080fd5b506101a57f000000000000000000000000000000000000000000000000000000000000000081565b3480156103e357600080fd5b506000546103f19060ff1681565b60405190151581526020016101b9565b61024461040f3660046111df565b6108f7565b34801561042057600080fd5b506101a57f000000000000000000000000000000000000000000000000000000000000000081565b34801561045457600080fd5b50610244610db2565b34801561046957600080fd5b506103176104783660046111b6565b610e9e565b34801561048957600080fd5b506102446104983660046111b6565b610ef5565b3480156104a957600080fd5b506000546101a59061010090046001600160a01b031681565b60005461010090046001600160a01b031633146104f15760405162461bcd60e51b8152600401610177906111f8565b6001600160a01b0381166105175760405162461bcd60e51b81526004016101779061122f565b600180546001600160a01b038381166001600160a01b031983168117909355604080519190921680825260208201939093527fce9caef2978509c160ecb4635d80502a939fccaf6f7f6967edbe940500cffd7791015b60405180910390a15050565b60005460ff16156105cc5760405162461bcd60e51b815260206004820152601d60248201527f4c697175696469747947656e657261746f723a2046494e414c495a45440000006044820152606401610177565b427f000000000000000000000000000000000000000000000000000000000000000081101561063d5760405162461bcd60e51b815260206004820152601c60248201527f4c697175696469747947656e657261746f723a20544f4f5f534f4f4e000000006044820152606401610177565b600254600090610679906001600160a01b037f000000000000000000000000000000000000000000000000000000000000000081169116611030565b6002549091506000906106b8906001600160a01b037f000000000000000000000000000000000000000000000000000000000000000081169116611030565b9050600260009054906101000a90046001600160a01b03166001600160a01b0316634bb278f36040518163ffffffff1660e01b8152600401600060405180830381600087803b15801561070a57600080fd5b505af115801561071e573d6000803e3d6000fd5b50506000805460ff19166001179055505060408051838152602081018390527fb968440accd1ce5fa60b00de8bb8d8487eb2fda3c3701fb30fea3f69aa910a48910160405180910390a1505050565b6040516375c1018960e11b81526001600160a01b038281166004830152600091829182917f00000000000000000000000000000000000000000000000000000000000000009091169063eb820312906024015b606060405180830381865afa1580156107dd573d6000803e3d6000fd5b505050506040513d601f19601f820116820180604052508101906108019190611272565b9250925092509193909250565b60007f00000000000000000000000000000000000000000000000000000000000000006001600160a01b0316633a98ef396040518163ffffffff1660e01b8152600401602060405180830381865afa15801561086e573d6000803e3d6000fd5b505050506040513d601f19601f8201168201806040525081019061089291906112a0565b905090565b60007f00000000000000000000000000000000000000000000000000000000000000006001600160a01b0316633a98ef396040518163ffffffff1660e01b8152600401602060405180830381865afa15801561086e573d6000803e3d6000fd5b427f00000000000000000000000000000000000000000000000000000000000000008110156109685760405162461bcd60e51b815260206004820152601c60248201527f4c697175696469747947656e657261746f723a20544f4f5f534f4f4e000000006044820152606401610177565b7f000000000000000000000000000000000000000000000000000000000000000081106109d75760405162461bcd60e51b815260206004820152601c60248201527f4c697175696469747947656e657261746f723a20544f4f5f4c415445000000006044820152606401610177565b62989680821015610a345760405162461bcd60e51b815260206004820152602160248201527f4c697175696469747947656e657261746f723a20494e56414c49445f56414c556044820152604560f81b6064820152608401610177565b6002546001600160a01b0316610a9e5760405162461bcd60e51b815260206004820152602960248201527f4c697175696469747947656e657261746f723a205a45524f5f414444524553536044820152685f524553455256455360b81b6064820152608401610177565b600254610ada906001600160a01b037f00000000000000000000000000000000000000000000000000000000000000008116913391168561109e565b6040516375c1018960e11b81523360048201526000907f00000000000000000000000000000000000000000000000000000000000000006001600160a01b03169063eb82031290602401606060405180830381865afa158015610b41573d6000803e3d6000fd5b505050506040513d601f19601f82011682018060405250810190610b659190611272565b509091508190507f0000000000000000000000000000000000000000000000000000000000000000831015610c2257610b9e828561101d565b6040516304674a9360e41b8152336004820152602481018290529091507f00000000000000000000000000000000000000000000000000000000000000006001600160a01b031690634674a93090604401600060405180830381600087803b158015610c0957600080fd5b505af1158015610c1d573d6000803e3d6000fd5b505050505b6040516375c1018960e11b81523360048201526000907f00000000000000000000000000000000000000000000000000000000000000006001600160a01b03169063eb82031290602401606060405180830381865afa158015610c89573d6000803e3d6000fd5b505050506040513d601f19601f82011682018060405250810190610cad9190611272565b5090915060009050610cbf828761101d565b6040516304674a9360e41b8152336004820152602481018290529091507f00000000000000000000000000000000000000000000000000000000000000006001600160a01b031690634674a93090604401600060405180830381600087803b158015610d2a57600080fd5b505af1158015610d3e573d6000803e3d6000fd5b50505050336001600160a01b03167ff943cf10ef4d1e3239f4716ddecdf546e8ba8ab0e41deafd9a71a99936827e4587610d7661080e565b610d7e610897565b60408051938452602084019290925290820152606081018490526080810186905260a00160405180910390a2505050505050565b6001546001600160a01b03163314610ddc5760405162461bcd60e51b8152600401610177906111f8565b60008054600180546001600160a01b03808216610100818102610100600160a81b0319871617968790556001600160a01b031990931690935560408051948390048216808652929095041660208401529290917f7e644d79422f17c01e4894b5f4f588d331ebfa28653d42ae832dc59e38c9798f910160405180910390a1600154604080516001600160a01b03808516825290921660208301527fce9caef2978509c160ecb4635d80502a939fccaf6f7f6967edbe940500cffd77910161056d565b6040516375c1018960e11b81526001600160a01b038281166004830152600091829182917f00000000000000000000000000000000000000000000000000000000000000009091169063eb820312906024016107c0565b7f00000000000000000000000000000000000000000000000000000000000000004210610f6e5760405162461bcd60e51b815260206004820152602160248201527f4c697175696469747947656e657261746f723a204576656e74205374617274656044820152601960fa1b6064820152608401610177565b60005461010090046001600160a01b03163314610f9d5760405162461bcd60e51b8152600401610177906111f8565b6001600160a01b038116610fc35760405162461bcd60e51b81526004016101779061122f565b600280546001600160a01b038381166001600160a01b031983168117909355604080519190921680825260208201939093527f3a4c1ee31657ea6603d60e66b12beae947df172538a56cb59b9f0c5534664578910161056d565b600061102982846112b9565b9392505050565b6040516370a0823160e01b81526001600160a01b038281166004830152600091908416906370a0823190602401602060405180830381865afa15801561107a573d6000803e3d6000fd5b505050506040513d601f19601f8201168201806040525081019061102991906112a0565b604080516001600160a01b0385811660248301528481166044830152606480830185905283518084039091018152608490920183526020820180516001600160e01b03166323b872dd60e01b179052915160009283929088169161110291906112df565b6000604051808303816000865af19150503d806000811461113f576040519150601f19603f3d011682016040523d82523d6000602084013e611144565b606091505b509150915081801561116e57508051158061116e57508080602001905181019061116e919061131a565b6111ae5760405162461bcd60e51b815260206004820152601160248201527021736166655472616e7366657246726f6d60781b6044820152606401610177565b505050505050565b6000602082840312156111c857600080fd5b81356001600160a01b038116811461102957600080fd5b6000602082840312156111f157600080fd5b5035919050565b6020808252601d908201527f4c697175696469747947656e657261746f723a20464f5242494444454e000000604082015260600190565b60208082526023908201527f4c697175696469747947656e657261746f723a20494e56414c49445f4144445260408201526245535360e81b606082015260800190565b60008060006060848603121561128757600080fd5b8351925060208401519150604084015190509250925092565b6000602082840312156112b257600080fd5b5051919050565b600082198211156112da57634e487b7160e01b600052601160045260246000fd5b500190565b6000825160005b8181101561130057602081860181015185830152016112e6565b8181111561130f576000828501525b509190910192915050565b60006020828403121561132c57600080fd5b8151801515811461102957600080fdfea264697066735822122050c8bdfac12daff3bac48761968ea65a19bc8fac4197da4891b6c5452137fd0564736f6c634300080a0033",
  "devdoc": {
    "kind": "dev",
    "methods": {},
    "version": 1
  },
  "userdoc": {
    "kind": "user",
    "methods": {},
    "version": 1
  },
  "storageLayout": {
    "storage": [
      {
        "astId": 4089,
        "contract": "contracts/LiquidityGenerator.sol:LiquidityGenerator",
        "label": "finalized",
        "offset": 0,
        "slot": "0",
        "type": "t_bool"
      },
      {
        "astId": 4091,
        "contract": "contracts/LiquidityGenerator.sol:LiquidityGenerator",
        "label": "admin",
        "offset": 1,
        "slot": "0",
        "type": "t_address"
      },
      {
        "astId": 4093,
        "contract": "contracts/LiquidityGenerator.sol:LiquidityGenerator",
        "label": "pendingAdmin",
        "offset": 0,
        "slot": "1",
        "type": "t_address"
      },
      {
        "astId": 4095,
        "contract": "contracts/LiquidityGenerator.sol:LiquidityGenerator",
        "label": "reservesManager",
        "offset": 0,
        "slot": "2",
        "type": "t_address"
      }
    ],
    "types": {
      "t_address": {
        "encoding": "inplace",
        "label": "address",
        "numberOfBytes": "20"
      },
      "t_bool": {
        "encoding": "inplace",
        "label": "bool",
        "numberOfBytes": "1"
      }
    }
  }
}