{
  "address": "0xea57474c20C4Bb3f0Fea4a5D2996c1e636b7Eb52",
  "abi": [
    {
      "inputs": [],
      "stateMutability": "nonpayable",
      "type": "constructor"
    },
    {
      "anonymous": false,
      "inputs": [
        {
          "indexed": true,
          "internalType": "address",
          "name": "owner",
          "type": "address"
        },
        {
          "indexed": true,
          "internalType": "address",
          "name": "spender",
          "type": "address"
        },
        {
          "indexed": false,
          "internalType": "uint256",
          "name": "value",
          "type": "uint256"
        }
      ],
      "name": "Approval",
      "type": "event"
    },
    {
      "anonymous": false,
      "inputs": [
        {
          "indexed": true,
          "internalType": "bytes32",
          "name": "role",
          "type": "bytes32"
        },
        {
          "indexed": true,
          "internalType": "bytes32",
          "name": "previousAdminRole",
          "type": "bytes32"
        },
        {
          "indexed": true,
          "internalType": "bytes32",
          "name": "newAdminRole",
          "type": "bytes32"
        }
      ],
      "name": "RoleAdminChanged",
      "type": "event"
    },
    {
      "anonymous": false,
      "inputs": [
        {
          "indexed": true,
          "internalType": "bytes32",
          "name": "role",
          "type": "bytes32"
        },
        {
          "indexed": true,
          "internalType": "address",
          "name": "account",
          "type": "address"
        },
        {
          "indexed": true,
          "internalType": "address",
          "name": "sender",
          "type": "address"
        }
      ],
      "name": "RoleGranted",
      "type": "event"
    },
    {
      "anonymous": false,
      "inputs": [
        {
          "indexed": true,
          "internalType": "bytes32",
          "name": "role",
          "type": "bytes32"
        },
        {
          "indexed": true,
          "internalType": "address",
          "name": "account",
          "type": "address"
        },
        {
          "indexed": true,
          "internalType": "address",
          "name": "sender",
          "type": "address"
        }
      ],
      "name": "RoleRevoked",
      "type": "event"
    },
    {
      "anonymous": false,
      "inputs": [
        {
          "indexed": true,
          "internalType": "address",
          "name": "from",
          "type": "address"
        },
        {
          "indexed": true,
          "internalType": "address",
          "name": "to",
          "type": "address"
        },
        {
          "indexed": false,
          "internalType": "uint256",
          "name": "value",
          "type": "uint256"
        }
      ],
      "name": "Transfer",
      "type": "event"
    },
    {
      "inputs": [],
      "name": "BURNER_ROLE",
      "outputs": [
        {
          "internalType": "bytes32",
          "name": "",
          "type": "bytes32"
        }
      ],
      "stateMutability": "view",
      "type": "function"
    },
    {
      "inputs": [],
      "name": "DEFAULT_ADMIN_ROLE",
      "outputs": [
        {
          "internalType": "bytes32",
          "name": "",
          "type": "bytes32"
        }
      ],
      "stateMutability": "view",
      "type": "function"
    },
    {
      "inputs": [],
      "name": "MINTER_ROLE",
      "outputs": [
        {
          "internalType": "bytes32",
          "name": "",
          "type": "bytes32"
        }
      ],
      "stateMutability": "view",
      "type": "function"
    },
    {
      "inputs": [],
      "name": "MINT_SIGNER_ROLE",
      "outputs": [
        {
          "internalType": "bytes32",
          "name": "",
          "type": "bytes32"
        }
      ],
      "stateMutability": "view",
      "type": "function"
    },
    {
      "inputs": [
        {
          "internalType": "address",
          "name": "",
          "type": "address"
        },
        {
          "internalType": "address",
          "name": "",
          "type": "address"
        }
      ],
      "name": "allowance",
      "outputs": [
        {
          "internalType": "uint256",
          "name": "",
          "type": "uint256"
        }
      ],
      "stateMutability": "pure",
      "type": "function"
    },
    {
      "inputs": [
        {
          "internalType": "address",
          "name": "",
          "type": "address"
        },
        {
          "internalType": "uint256",
          "name": "",
          "type": "uint256"
        }
      ],
      "name": "approve",
      "outputs": [
        {
          "internalType": "bool",
          "name": "",
          "type": "bool"
        }
      ],
      "stateMutability": "pure",
      "type": "function"
    },
    {
      "inputs": [
        {
          "internalType": "address",
          "name": "account",
          "type": "address"
        }
      ],
      "name": "balanceOf",
      "outputs": [
        {
          "internalType": "uint256",
          "name": "",
          "type": "uint256"
        }
      ],
      "stateMutability": "view",
      "type": "function"
    },
    {
      "inputs": [
        {
          "internalType": "uint256",
          "name": "amount",
          "type": "uint256"
        }
      ],
      "name": "burn",
      "outputs": [],
      "stateMutability": "nonpayable",
      "type": "function"
    },
    {
      "inputs": [
        {
          "internalType": "address",
          "name": "account",
          "type": "address"
        },
        {
          "internalType": "uint256",
          "name": "amount",
          "type": "uint256"
        }
      ],
      "name": "burnFrom",
      "outputs": [],
      "stateMutability": "nonpayable",
      "type": "function"
    },
    {
      "inputs": [],
      "name": "decimals",
      "outputs": [
        {
          "internalType": "uint256",
          "name": "",
          "type": "uint256"
        }
      ],
      "stateMutability": "view",
      "type": "function"
    },
    {
      "inputs": [
        {
          "internalType": "bytes32",
          "name": "role",
          "type": "bytes32"
        }
      ],
      "name": "getRoleAdmin",
      "outputs": [
        {
          "internalType": "bytes32",
          "name": "",
          "type": "bytes32"
        }
      ],
      "stateMutability": "view",
      "type": "function"
    },
    {
      "inputs": [
        {
          "internalType": "address",
          "name": "account",
          "type": "address"
        },
        {
          "internalType": "uint256",
          "name": "cumulativeAmount",
          "type": "uint256"
        },
        {
          "internalType": "uint256",
          "name": "expire",
          "type": "uint256"
        }
      ],
      "name": "getSignMessage",
      "outputs": [
        {
          "internalType": "bytes32",
          "name": "",
          "type": "bytes32"
        }
      ],
      "stateMutability": "pure",
      "type": "function"
    },
    {
      "inputs": [
        {
          "internalType": "bytes32",
          "name": "role",
          "type": "bytes32"
        },
        {
          "internalType": "address",
          "name": "account",
          "type": "address"
        }
      ],
      "name": "grantRole",
      "outputs": [],
      "stateMutability": "nonpayable",
      "type": "function"
    },
    {
      "inputs": [
        {
          "internalType": "bytes32",
          "name": "role",
          "type": "bytes32"
        },
        {
          "internalType": "address",
          "name": "account",
          "type": "address"
        }
      ],
      "name": "hasRole",
      "outputs": [
        {
          "internalType": "bool",
          "name": "",
          "type": "bool"
        }
      ],
      "stateMutability": "view",
      "type": "function"
    },
    {
      "inputs": [],
      "name": "maxSupply",
      "outputs": [
        {
          "internalType": "uint256",
          "name": "",
          "type": "uint256"
        }
      ],
      "stateMutability": "view",
      "type": "function"
    },
    {
      "inputs": [
        {
          "internalType": "address",
          "name": "to",
          "type": "address"
        },
        {
          "internalType": "uint256",
          "name": "cumulativeAmount",
          "type": "uint256"
        },
        {
          "internalType": "uint256",
          "name": "expire",
          "type": "uint256"
        },
        {
          "internalType": "bytes",
          "name": "signature",
          "type": "bytes"
        }
      ],
      "name": "mintWithPermit",
      "outputs": [],
      "stateMutability": "nonpayable",
      "type": "function"
    },
    {
      "inputs": [
        {
          "internalType": "address",
          "name": "",
          "type": "address"
        }
      ],
      "name": "minted",
      "outputs": [
        {
          "internalType": "uint256",
          "name": "",
          "type": "uint256"
        }
      ],
      "stateMutability": "view",
      "type": "function"
    },
    {
      "inputs": [],
      "name": "name",
      "outputs": [
        {
          "internalType": "string",
          "name": "",
          "type": "string"
        }
      ],
      "stateMutability": "view",
      "type": "function"
    },
    {
      "inputs": [
        {
          "internalType": "bytes32",
          "name": "role",
          "type": "bytes32"
        },
        {
          "internalType": "address",
          "name": "account",
          "type": "address"
        }
      ],
      "name": "renounceRole",
      "outputs": [],
      "stateMutability": "nonpayable",
      "type": "function"
    },
    {
      "inputs": [
        {
          "internalType": "bytes32",
          "name": "role",
          "type": "bytes32"
        },
        {
          "internalType": "address",
          "name": "account",
          "type": "address"
        }
      ],
      "name": "revokeRole",
      "outputs": [],
      "stateMutability": "nonpayable",
      "type": "function"
    },
    {
      "inputs": [
        {
          "internalType": "bytes4",
          "name": "interfaceId",
          "type": "bytes4"
        }
      ],
      "name": "supportsInterface",
      "outputs": [
        {
          "internalType": "bool",
          "name": "",
          "type": "bool"
        }
      ],
      "stateMutability": "view",
      "type": "function"
    },
    {
      "inputs": [],
      "name": "symbol",
      "outputs": [
        {
          "internalType": "string",
          "name": "",
          "type": "string"
        }
      ],
      "stateMutability": "view",
      "type": "function"
    },
    {
      "inputs": [],
      "name": "totalSupply",
      "outputs": [
        {
          "internalType": "uint256",
          "name": "",
          "type": "uint256"
        }
      ],
      "stateMutability": "view",
      "type": "function"
    },
    {
      "inputs": [
        {
          "internalType": "address",
          "name": "",
          "type": "address"
        },
        {
          "internalType": "uint256",
          "name": "",
          "type": "uint256"
        }
      ],
      "name": "transfer",
      "outputs": [
        {
          "internalType": "bool",
          "name": "",
          "type": "bool"
        }
      ],
      "stateMutability": "pure",
      "type": "function"
    },
    {
      "inputs": [
        {
          "internalType": "address",
          "name": "",
          "type": "address"
        },
        {
          "internalType": "address",
          "name": "",
          "type": "address"
        },
        {
          "internalType": "uint256",
          "name": "",
          "type": "uint256"
        }
      ],
      "name": "transferFrom",
      "outputs": [
        {
          "internalType": "bool",
          "name": "",
          "type": "bool"
        }
      ],
      "stateMutability": "pure",
      "type": "function"
    },
    {
      "inputs": [
        {
          "internalType": "bytes32",
          "name": "message",
          "type": "bytes32"
        },
        {
          "internalType": "bytes",
          "name": "signature",
          "type": "bytes"
        }
      ],
      "name": "verifySignature",
      "outputs": [
        {
          "internalType": "bool",
          "name": "",
          "type": "bool"
        }
      ],
      "stateMutability": "view",
      "type": "function"
    }
  ],
  "transactionHash": "0xcf5f15c76e7764a08d3c275e8db8cffe576f6729ba773c6c7df443ccd700ac05",
  "args": [],
  "numDeployments": 2,
  "solcInputHash": "348f1aee64a9808bb13ea5e43b9a188d",
  "bytecode": "0x60806040523480156200001157600080fd5b50604080518082018252601381527f4d656e6469204c6f79616c747920506f696e740000000000000000000000000060208083019182528351808501909452600384526204d4c560ec1b9084015281519192916012916a084595161401484a00000091620000829160019162000168565b5082516200009890600290602086019062000168565b5060039190915560045550620000b29050600033620000b8565b6200024b565b620000c48282620000c8565b5050565b6000828152602081815260408083206001600160a01b038516845290915290205460ff16620000c4576000828152602081815260408083206001600160a01b03851684529091529020805460ff19166001179055620001243390565b6001600160a01b0316816001600160a01b0316837f2f8788117e7eff1d82e926ec794901d17c78024a50270940304540a733656f0d60405160405180910390a45050565b82805462000176906200020e565b90600052602060002090601f0160209004810192826200019a5760008555620001e5565b82601f10620001b557805160ff1916838001178555620001e5565b82800160010185558215620001e5579182015b82811115620001e5578251825591602001919060010190620001c8565b50620001f3929150620001f7565b5090565b5b80821115620001f35760008155600101620001f8565b600181811c908216806200022357607f821691505b602082108114156200024557634e487b7160e01b600052602260045260246000fd5b50919050565b61175d806200025b6000396000f3fe608060405234801561001057600080fd5b50600436106101ae5760003560e01c806342966c68116100ee578063a217fddf11610097578063d547741f11610071578063d547741f1461041b578063d5abeb011461042e578063daca6f7814610437578063dd62ed3e1461044a57600080fd5b8063a217fddf146103de578063a9059cbb146103e6578063d5391393146103f457600080fd5b806379cc6790116100c857806379cc67901461038c57806391d148541461039f57806395d89b41146103d657600080fd5b806342966c68146102fd5780634b27cd571461031057806370a082311461036357600080fd5b806323b872dd1161015b5780632f2ff15d116101355780632f2ff15d146102a7578063313ce567146102ba57806336568abe146102c3578063390dad5f146102d657600080fd5b806323b872dd1461024a578063248a9ca31461025d578063282c51f31461028057600080fd5b8063095ea7b31161018c578063095ea7b31461020557806318160ddd146102185780631e7269c51461022a57600080fd5b806301ffc9a7146101b3578063068fa31d146101db57806306fdde03146101f0575b600080fd5b6101c66101c13660046112ac565b610460565b60405190151581526020015b60405180910390f35b6101ee6101e93660046113ad565b6104f9565b005b6101f8610711565b6040516101d2919061143e565b6101c6610213366004611471565b61079f565b6005545b6040519081526020016101d2565b61021c61023836600461149b565b60076020526000908152604090205481565b6101c66102583660046114b6565b6107ea565b61021c61026b3660046114f2565b60009081526020819052604090206001015490565b61021c7f3c11d16cbaffd01df69ce1c404f6340ee057498f5f00246190ea54220576a84881565b6101ee6102b536600461150b565b610835565b61021c60035481565b6101ee6102d136600461150b565b61085f565b61021c7fa935ad49455f7e8f11eb0a0d7865a0ce5ae2dcc1e65d3e41227a702e4e398a0c81565b6101ee61030b3660046114f2565b6108eb565b61021c61031e366004611537565b604080516001600160a01b0385166020820152908101839052606081018290526000906080016040516020818303038152906040528051906020012090509392505050565b61021c61037136600461149b565b6001600160a01b031660009081526006602052604090205490565b6101ee61039a366004611471565b6108f8565b6101c66103ad36600461150b565b6000918252602082815260408084206001600160a01b0393909316845291905290205460ff1690565b6101f861092c565b61021c600081565b6101c6610258366004611471565b61021c7f9f2df0fed2c77648de5860a4cc508cd0818c85b8b8a1ab4ceeef8d981c8956a681565b6101ee61042936600461150b565b610939565b61021c60045481565b6101c661044536600461156a565b61095e565b61021c6104583660046115b1565b600092915050565b60007fffffffff0000000000000000000000000000000000000000000000000000000082167f7965db0b0000000000000000000000000000000000000000000000000000000014806104f357507f01ffc9a7000000000000000000000000000000000000000000000000000000007fffffffff000000000000000000000000000000000000000000000000000000008316145b92915050565b42821161054d5760405162461bcd60e51b815260206004820152600c60248201527f4d4c503a2065787069726564000000000000000000000000000000000000000060448201526064015b60405180910390fd5b336001600160a01b03851681146105e5576001600160a01b03811660009081527f0781d7cac9c378efa22a7481e4d4d29704a680ddf504b3bc50b517700ee11e6c602052604090205460ff166105e55760405162461bcd60e51b815260206004820152601360248201527f4d4c503a2075736572206f72206d696e746572000000000000000000000000006044820152606401610544565b604080516001600160a01b0387166020808301919091528183018790526060808301879052835180840390910181526080909201909252805191012061062b818461095e565b6106775760405162461bcd60e51b815260206004820152601260248201527f4d4c503a206e6f74207065726d697474656400000000000000000000000000006044820152606401610544565b6001600160a01b0386166000908152600760205260409020548086116106df5760405162461bcd60e51b815260206004820152601460248201527f4d4c503a206e6f7468696e6720746f206d696e740000000000000000000000006044820152606401610544565b6001600160a01b03871660009081526007602052604090208690558086036107078882610a09565b5050505050505050565b6001805461071e906115db565b80601f016020809104026020016040519081016040528092919081815260200182805461074a906115db565b80156107975780601f1061076c57610100808354040283529160200191610797565b820191906000526020600020905b81548152906001019060200180831161077a57829003601f168201915b505050505081565b60405162461bcd60e51b815260206004820152600f60248201527f5342543a206e6f20617070726f766500000000000000000000000000000000006044820152600090606401610544565b60405162461bcd60e51b815260206004820152601060248201527f5342543a206e6f207472616e73666572000000000000000000000000000000006044820152600090606401610544565b60008281526020819052604090206001015461085081610b1e565b61085a8383610b28565b505050565b6001600160a01b03811633146108dd5760405162461bcd60e51b815260206004820152602f60248201527f416363657373436f6e74726f6c3a2063616e206f6e6c792072656e6f756e636560448201527f20726f6c657320666f722073656c6600000000000000000000000000000000006064820152608401610544565b6108e78282610bc6565b5050565b6108f53382610c45565b50565b7f3c11d16cbaffd01df69ce1c404f6340ee057498f5f00246190ea54220576a84861092281610b1e565b61085a8383610c45565b6002805461071e906115db565b60008281526020819052604090206001015461095481610b1e565b61085a8383610bc6565b6000806109b8846040517f19457468657265756d205369676e6564204d6573736167653a0a3332000000006020820152603c8101829052600090605c01604051602081830303815290604052805190602001209050919050565b905060006109c68285610da8565b6001600160a01b031660009081527fb49b7565b41851676a1f14588912ceae471061d11da3b6c96c7f9581ac6a0304602052604090205460ff1695945050505050565b6001600160a01b038216610a5f5760405162461bcd60e51b815260206004820152601d60248201527f5342543a206d696e7420746f20746865207a65726f20616464726573730000006044820152606401610544565b600081600554610a6f919061162c565b9050600454811115610ac35760405162461bcd60e51b815260206004820152601760248201527f5342543a206d617820737570706c7920726561636865640000000000000000006044820152606401610544565b60058190556001600160a01b0383166000818152600660209081526040808320805487019055518581527fddf252ad1be2c89b69c2b068fc378daa952ba7f163c4a11628f55a4df523b3ef91015b60405180910390a3505050565b6108f58133610dcc565b6000828152602081815260408083206001600160a01b038516845290915290205460ff166108e7576000828152602081815260408083206001600160a01b03851684529091529020805460ff19166001179055610b823390565b6001600160a01b0316816001600160a01b0316837f2f8788117e7eff1d82e926ec794901d17c78024a50270940304540a733656f0d60405160405180910390a45050565b6000828152602081815260408083206001600160a01b038516845290915290205460ff16156108e7576000828152602081815260408083206001600160a01b0385168085529252808320805460ff1916905551339285917ff6391f5c32d9c69d2a47ea670b442974b53935d1edc7fd64eb21e047a839171b9190a45050565b6001600160a01b038216610cc15760405162461bcd60e51b815260206004820152602160248201527f45524332303a206275726e2066726f6d20746865207a65726f2061646472657360448201527f73000000000000000000000000000000000000000000000000000000000000006064820152608401610544565b6001600160a01b03821660009081526006602052604090205481811015610d505760405162461bcd60e51b815260206004820152602260248201527f45524332303a206275726e20616d6f756e7420657863656564732062616c616e60448201527f63650000000000000000000000000000000000000000000000000000000000006064820152608401610544565b6001600160a01b03831660008181526006602090815260408083208686039055600580548790039055518581529192917fddf252ad1be2c89b69c2b068fc378daa952ba7f163c4a11628f55a4df523b3ef9101610b11565b6000806000610db78585610e3f565b91509150610dc481610e85565b509392505050565b6000828152602081815260408083206001600160a01b038516845290915290205460ff166108e757610dfd81610fee565b610e08836020611000565b604051602001610e19929190611644565b60408051601f198184030181529082905262461bcd60e51b82526105449160040161143e565b600080825160411415610e765760208301516040840151606085015160001a610e6a878285856111e8565b94509450505050610e7e565b506000905060025b9250929050565b6000816004811115610e9957610e996116c5565b1415610ea25750565b6001816004811115610eb657610eb66116c5565b1415610f045760405162461bcd60e51b815260206004820152601860248201527f45434453413a20696e76616c6964207369676e617475726500000000000000006044820152606401610544565b6002816004811115610f1857610f186116c5565b1415610f665760405162461bcd60e51b815260206004820152601f60248201527f45434453413a20696e76616c6964207369676e6174757265206c656e677468006044820152606401610544565b6003816004811115610f7a57610f7a6116c5565b14156108f55760405162461bcd60e51b815260206004820152602260248201527f45434453413a20696e76616c6964207369676e6174757265202773272076616c60448201527f75650000000000000000000000000000000000000000000000000000000000006064820152608401610544565b60606104f36001600160a01b03831660145b6060600061100f8360026116db565b61101a90600261162c565b67ffffffffffffffff8111156110325761103261130a565b6040519080825280601f01601f19166020018201604052801561105c576020820181803683370190505b5090507f300000000000000000000000000000000000000000000000000000000000000081600081518110611093576110936116fa565b60200101906001600160f81b031916908160001a9053507f7800000000000000000000000000000000000000000000000000000000000000816001815181106110de576110de6116fa565b60200101906001600160f81b031916908160001a90535060006111028460026116db565b61110d90600161162c565b90505b6001811115611192577f303132333435363738396162636465660000000000000000000000000000000085600f166010811061114e5761114e6116fa565b1a60f81b828281518110611164576111646116fa565b60200101906001600160f81b031916908160001a90535060049490941c9361118b81611710565b9050611110565b5083156111e15760405162461bcd60e51b815260206004820181905260248201527f537472696e67733a20686578206c656e67746820696e73756666696369656e746044820152606401610544565b9392505050565b6000807f7fffffffffffffffffffffffffffffff5d576e7357a4501ddfe92f46681b20a083111561121f57506000905060036112a3565b6040805160008082526020820180845289905260ff881692820192909252606081018690526080810185905260019060a0016020604051602081039080840390855afa158015611273573d6000803e3d6000fd5b5050604051601f1901519150506001600160a01b03811661129c576000600192509250506112a3565b9150600090505b94509492505050565b6000602082840312156112be57600080fd5b81357fffffffff00000000000000000000000000000000000000000000000000000000811681146111e157600080fd5b80356001600160a01b038116811461130557600080fd5b919050565b634e487b7160e01b600052604160045260246000fd5b600082601f83011261133157600080fd5b813567ffffffffffffffff8082111561134c5761134c61130a565b604051601f8301601f19908116603f011681019082821181831017156113745761137461130a565b8160405283815286602085880101111561138d57600080fd5b836020870160208301376000602085830101528094505050505092915050565b600080600080608085870312156113c357600080fd5b6113cc856112ee565b93506020850135925060408501359150606085013567ffffffffffffffff8111156113f657600080fd5b61140287828801611320565b91505092959194509250565b60005b83811015611429578181015183820152602001611411565b83811115611438576000848401525b50505050565b602081526000825180602084015261145d81604085016020870161140e565b601f01601f19169190910160400192915050565b6000806040838503121561148457600080fd5b61148d836112ee565b946020939093013593505050565b6000602082840312156114ad57600080fd5b6111e1826112ee565b6000806000606084860312156114cb57600080fd5b6114d4846112ee565b92506114e2602085016112ee565b9150604084013590509250925092565b60006020828403121561150457600080fd5b5035919050565b6000806040838503121561151e57600080fd5b8235915061152e602084016112ee565b90509250929050565b60008060006060848603121561154c57600080fd5b611555846112ee565b95602085013595506040909401359392505050565b6000806040838503121561157d57600080fd5b82359150602083013567ffffffffffffffff81111561159b57600080fd5b6115a785828601611320565b9150509250929050565b600080604083850312156115c457600080fd5b6115cd836112ee565b915061152e602084016112ee565b600181811c908216806115ef57607f821691505b6020821081141561161057634e487b7160e01b600052602260045260246000fd5b50919050565b634e487b7160e01b600052601160045260246000fd5b6000821982111561163f5761163f611616565b500190565b7f416363657373436f6e74726f6c3a206163636f756e742000000000000000000081526000835161167c81601785016020880161140e565b7f206973206d697373696e6720726f6c652000000000000000000000000000000060179184019182015283516116b981602884016020880161140e565b01602801949350505050565b634e487b7160e01b600052602160045260246000fd5b60008160001904831182151516156116f5576116f5611616565b500290565b634e487b7160e01b600052603260045260246000fd5b60008161171f5761171f611616565b50600019019056fea264697066735822122044f9e6ca72891f1e3bee96e9789e852b3fdf4c81e857dcfb0ca816d6683c372364736f6c634300080a0033",
  "devdoc": {
    "kind": "dev",
    "methods": {
      "balanceOf(address)": {
        "details": "Returns the amount of tokens owned by `account`."
      },
      "getRoleAdmin(bytes32)": {
        "details": "Returns the admin role that controls `role`. See {grantRole} and {revokeRole}. To change a role's admin, use {_setRoleAdmin}."
      },
      "grantRole(bytes32,address)": {
        "details": "Grants `role` to `account`. If `account` had not been already granted `role`, emits a {RoleGranted} event. Requirements: - the caller must have ``role``'s admin role. May emit a {RoleGranted} event."
      },
      "hasRole(bytes32,address)": {
        "details": "Returns `true` if `account` has been granted `role`."
      },
      "renounceRole(bytes32,address)": {
        "details": "Revokes `role` from the calling account. Roles are often managed via {grantRole} and {revokeRole}: this function's purpose is to provide a mechanism for accounts to lose their privileges if they are compromised (such as when a trusted device is misplaced). If the calling account had been revoked `role`, emits a {RoleRevoked} event. Requirements: - the caller must be `account`. May emit a {RoleRevoked} event."
      },
      "revokeRole(bytes32,address)": {
        "details": "Revokes `role` from `account`. If `account` had been granted `role`, emits a {RoleRevoked} event. Requirements: - the caller must have ``role``'s admin role. May emit a {RoleRevoked} event."
      },
      "supportsInterface(bytes4)": {
        "details": "See {IERC165-supportsInterface}."
      },
      "totalSupply()": {
        "details": "Returns the amount of tokens in existence."
      }
    },
    "version": 1
  },
  "userdoc": {
    "kind": "user",
    "methods": {},
    "version": 1
  },
  "storageLayout": {
    "storage": [
      {
        "astId": 24,
        "contract": "contracts/MendiLoyaltyPoint.sol:MendiLoyaltyPoint",
        "label": "_roles",
        "offset": 0,
        "slot": "0",
        "type": "t_mapping(t_bytes32,t_struct(RoleData)19_storage)"
      },
      {
        "astId": 2265,
        "contract": "contracts/MendiLoyaltyPoint.sol:MendiLoyaltyPoint",
        "label": "name",
        "offset": 0,
        "slot": "1",
        "type": "t_string_storage"
      },
      {
        "astId": 2267,
        "contract": "contracts/MendiLoyaltyPoint.sol:MendiLoyaltyPoint",
        "label": "symbol",
        "offset": 0,
        "slot": "2",
        "type": "t_string_storage"
      },
      {
        "astId": 2269,
        "contract": "contracts/MendiLoyaltyPoint.sol:MendiLoyaltyPoint",
        "label": "decimals",
        "offset": 0,
        "slot": "3",
        "type": "t_uint256"
      },
      {
        "astId": 2271,
        "contract": "contracts/MendiLoyaltyPoint.sol:MendiLoyaltyPoint",
        "label": "maxSupply",
        "offset": 0,
        "slot": "4",
        "type": "t_uint256"
      },
      {
        "astId": 2273,
        "contract": "contracts/MendiLoyaltyPoint.sol:MendiLoyaltyPoint",
        "label": "_totalSupply",
        "offset": 0,
        "slot": "5",
        "type": "t_uint256"
      },
      {
        "astId": 2277,
        "contract": "contracts/MendiLoyaltyPoint.sol:MendiLoyaltyPoint",
        "label": "_balances",
        "offset": 0,
        "slot": "6",
        "type": "t_mapping(t_address,t_uint256)"
      },
      {
        "astId": 2515,
        "contract": "contracts/MendiLoyaltyPoint.sol:MendiLoyaltyPoint",
        "label": "minted",
        "offset": 0,
        "slot": "7",
        "type": "t_mapping(t_address,t_uint256)"
      }
    ],
    "types": {
      "t_address": {
        "encoding": "inplace",
        "label": "address",
        "numberOfBytes": "20"
      },
      "t_bool": {
        "encoding": "inplace",
        "label": "bool",
        "numberOfBytes": "1"
      },
      "t_bytes32": {
        "encoding": "inplace",
        "label": "bytes32",
        "numberOfBytes": "32"
      },
      "t_mapping(t_address,t_bool)": {
        "encoding": "mapping",
        "key": "t_address",
        "label": "mapping(address => bool)",
        "numberOfBytes": "32",
        "value": "t_bool"
      },
      "t_mapping(t_address,t_uint256)": {
        "encoding": "mapping",
        "key": "t_address",
        "label": "mapping(address => uint256)",
        "numberOfBytes": "32",
        "value": "t_uint256"
      },
      "t_mapping(t_bytes32,t_struct(RoleData)19_storage)": {
        "encoding": "mapping",
        "key": "t_bytes32",
        "label": "mapping(bytes32 => struct AccessControl.RoleData)",
        "numberOfBytes": "32",
        "value": "t_struct(RoleData)19_storage"
      },
      "t_string_storage": {
        "encoding": "bytes",
        "label": "string",
        "numberOfBytes": "32"
      },
      "t_struct(RoleData)19_storage": {
        "encoding": "inplace",
        "label": "struct AccessControl.RoleData",
        "members": [
          {
            "astId": 16,
            "contract": "contracts/MendiLoyaltyPoint.sol:MendiLoyaltyPoint",
            "label": "members",
            "offset": 0,
            "slot": "0",
            "type": "t_mapping(t_address,t_bool)"
          },
          {
            "astId": 18,
            "contract": "contracts/MendiLoyaltyPoint.sol:MendiLoyaltyPoint",
            "label": "adminRole",
            "offset": 0,
            "slot": "1",
            "type": "t_bytes32"
          }
        ],
        "numberOfBytes": "64"
      },
      "t_uint256": {
        "encoding": "inplace",
        "label": "uint256",
        "numberOfBytes": "32"
      }
    }
  }
}