{
  "address": "0xF90af8e5ee4B6e9e4126b52322d1442BD03a702F",
  "abi": [
    {
      "inputs": [
        {
          "internalType": "address",
          "name": "mendi_",
          "type": "address"
        },
        {
          "internalType": "address",
          "name": "recipient_",
          "type": "address"
        },
        {
          "internalType": "uint256",
          "name": "vestingAmount_",
          "type": "uint256"
        },
        {
          "internalType": "uint256",
          "name": "vestingBegin_",
          "type": "uint256"
        },
        {
          "internalType": "uint256",
          "name": "vestingEnd_",
          "type": "uint256"
        }
      ],
      "stateMutability": "nonpayable",
      "type": "constructor"
    },
    {
      "anonymous": false,
      "inputs": [
        {
          "indexed": true,
          "internalType": "address",
          "name": "account",
          "type": "address"
        },
        {
          "indexed": false,
          "internalType": "uint256",
          "name": "amount",
          "type": "uint256"
        }
      ],
      "name": "Claim",
      "type": "event"
    },
    {
      "inputs": [],
      "name": "claim",
      "outputs": [
        {
          "internalType": "uint256",
          "name": "amount",
          "type": "uint256"
        }
      ],
      "stateMutability": "nonpayable",
      "type": "function"
    },
    {
      "inputs": [],
      "name": "finalPoint",
      "outputs": [
        {
          "internalType": "uint256",
          "name": "",
          "type": "uint256"
        }
      ],
      "stateMutability": "view",
      "type": "function"
    },
    {
      "inputs": [],
      "name": "getBlockTimestamp",
      "outputs": [
        {
          "internalType": "uint256",
          "name": "",
          "type": "uint256"
        }
      ],
      "stateMutability": "view",
      "type": "function"
    },
    {
      "inputs": [],
      "name": "mendi",
      "outputs": [
        {
          "internalType": "address",
          "name": "",
          "type": "address"
        }
      ],
      "stateMutability": "view",
      "type": "function"
    },
    {
      "inputs": [],
      "name": "previousPoint",
      "outputs": [
        {
          "internalType": "uint256",
          "name": "",
          "type": "uint256"
        }
      ],
      "stateMutability": "view",
      "type": "function"
    },
    {
      "inputs": [],
      "name": "recipient",
      "outputs": [
        {
          "internalType": "address",
          "name": "",
          "type": "address"
        }
      ],
      "stateMutability": "view",
      "type": "function"
    },
    {
      "inputs": [],
      "name": "segments",
      "outputs": [
        {
          "internalType": "uint256",
          "name": "",
          "type": "uint256"
        }
      ],
      "stateMutability": "view",
      "type": "function"
    },
    {
      "inputs": [
        {
          "internalType": "address",
          "name": "recipient_",
          "type": "address"
        }
      ],
      "name": "setRecipient",
      "outputs": [],
      "stateMutability": "nonpayable",
      "type": "function"
    },
    {
      "inputs": [],
      "name": "vestingAmount",
      "outputs": [
        {
          "internalType": "uint256",
          "name": "",
          "type": "uint256"
        }
      ],
      "stateMutability": "view",
      "type": "function"
    },
    {
      "inputs": [],
      "name": "vestingBegin",
      "outputs": [
        {
          "internalType": "uint256",
          "name": "",
          "type": "uint256"
        }
      ],
      "stateMutability": "view",
      "type": "function"
    },
    {
      "inputs": [
        {
          "internalType": "uint256",
          "name": "x",
          "type": "uint256"
        }
      ],
      "name": "vestingCurve",
      "outputs": [
        {
          "internalType": "uint256",
          "name": "y",
          "type": "uint256"
        }
      ],
      "stateMutability": "pure",
      "type": "function"
    },
    {
      "inputs": [],
      "name": "vestingEnd",
      "outputs": [
        {
          "internalType": "uint256",
          "name": "",
          "type": "uint256"
        }
      ],
      "stateMutability": "view",
      "type": "function"
    }
  ],
  "transactionHash": "0x0212bedf8361c8a90f30402e18c47a185fc6b01abcdf14b230d2bf83c8d6e75c",
  "args": [
    "0x43E8809ea748EFf3204ee01F08872F063e44065f",
    "0x57cd331C7b2c7582625810465Ea3CF9bdcA21236",
    "3200000000000000000000000",
    1692288000,
    1723824000
  ],
  "numDeployments": 1,
  "solcInputHash": "d64cd7ba315dfc138d7ff0705d878448",
  "bytecode": "0x6101206040523480156200001257600080fd5b5060405162000b1c38038062000b1c8339810160408190526200003591620001cf565b84848484848181116200008e5760405162461bcd60e51b815260206004820152601560248201527f5665737465723a20454e445f544f4f5f4541524c590000000000000000000000604482015260640160405180910390fd5b6001600160a01b03858116608052600080546001600160a01b03191691861691909117905560a083905260c082905260e0819052620000d5670de0b6b3a7640000620000ea565b6101005250620002b298505050505050505050565b6000670de0b6b3a7640000815b670de0b6b3a7640000811015620001ab576200011b81662386f26fc1000062000238565b8410156200016357662386f26fc1000062000137828662000253565b6200014390846200026d565b6200014f91906200028f565b6200015b908462000238565b949350505050565b6200016f828462000238565b92506103e862000182836103d06200026d565b6200018e91906200028f565b9150620001a3662386f26fc100008262000238565b9050620000f7565b5050919050565b80516001600160a01b0381168114620001ca57600080fd5b919050565b600080600080600060a08688031215620001e857600080fd5b620001f386620001b2565b94506200020360208701620001b2565b6040870151606088015160809098015196999198509695945092505050565b634e487b7160e01b600052601160045260246000fd5b600082198211156200024e576200024e62000222565b500190565b60008282101562000268576200026862000222565b500390565b60008160001904831182151516156200028a576200028a62000222565b500290565b600082620002ad57634e487b7160e01b600052601260045260246000fd5b500490565b60805160a05160c05160e051610100516107e16200033b6000396000818160f701526105bb015260008181610193015281816102fd01526105440152600081816101d6015281816102cd01528181610523015261057901526000818160bd015281816105f4015261063a01526000818161013b0152818161033801526103ec01526107e16000f3fe608060405234801561001057600080fd5b50600436106100b35760003560e01c8063796b89b911610071578063796b89b91461018857806384a1931f1461018e57806389b1e13f146101b5578063cf190360146101c8578063e29bc68b146101d1578063e2d6870a146101f857600080fd5b8062728f76146100b8578063062f0429146100f25780633bbed4a0146101195780634e71d92d1461012e5780635f33f2811461013657806366d003ac14610175575b600080fd5b6100df7f000000000000000000000000000000000000000000000000000000000000000081565b6040519081526020015b60405180910390f35b6100df7f000000000000000000000000000000000000000000000000000000000000000081565b61012c6101273660046106a8565b610200565b005b6100df610278565b61015d7f000000000000000000000000000000000000000000000000000000000000000081565b6040516001600160a01b0390911681526020016100e9565b60005461015d906001600160a01b031681565b426100df565b6100df7f000000000000000000000000000000000000000000000000000000000000000081565b6100df6101c33660046106d1565b610461565b6100df60015481565b6100df7f000000000000000000000000000000000000000000000000000000000000000081565b6100df606481565b6000546001600160a01b031633146102565760405162461bcd60e51b815260206004820152601460248201527315995cdd195c8e8815539055551213d49256915160621b60448201526064015b60405180910390fd5b600080546001600160a01b0319166001600160a01b0392909216919091179055565b600080546001600160a01b031633146102ca5760405162461bcd60e51b815260206004820152601460248201527315995cdd195c8e8815539055551213d49256915160621b604482015260640161024d565b427f00000000000000000000000000000000000000000000000000000000000000008110156102fb57600091505090565b7f00000000000000000000000000000000000000000000000000000000000000008111156103b2576040516370a0823160e01b81523060048201527f00000000000000000000000000000000000000000000000000000000000000006001600160a01b0316906370a0823190602401602060405180830381865afa158015610387573d6000803e3d6000fd5b505050506040513d601f19601f820116820180604052508101906103ab91906106ea565b91506103bd565b6103ba610514565b91505b811561045d5760005460405163a9059cbb60e01b81526001600160a01b039182166004820152602481018490527f00000000000000000000000000000000000000000000000000000000000000009091169063a9059cbb906044016020604051808303816000875af1158015610437573d6000803e3d6000fd5b505050506040513d601f19601f8201168201806040525081019061045b9190610703565b505b5090565b6000670de0b6b3a7640000815b670de0b6b3a764000081101561050d5761048f81662386f26fc1000061073b565b8410156104ce57662386f26fc100006104a88286610753565b6104b2908461076a565b6104bc9190610789565b6104c6908461073b565b949350505050565b6104d8828461073b565b92506103e86104e9836103d061076a565b6104f39190610789565b9150610506662386f26fc100008261073b565b905061046e565b5050919050565b600042816105aa6101c36105687f00000000000000000000000000000000000000000000000000000000000000007f0000000000000000000000000000000000000000000000000000000000000000610753565b6105a4670de0b6b3a764000061059e7f000000000000000000000000000000000000000000000000000000000000000088610753565b90610671565b90610684565b9050610619600a6105a4600561059e7f00000000000000000000000000000000000000000000000000000000000000006105a46105f26001548961069090919063ffffffff16565b7f000000000000000000000000000000000000000000000000000000000000000090610671565b9250600154600014801561062d5750600081115b1561066a576106676106607f00000000000000000000000000000000000000000000000000000000000000006002610684565b849061069c565b92505b6001555090565b600061067d828461076a565b9392505050565b600061067d8284610789565b600061067d8284610753565b600061067d828461073b565b6000602082840312156106ba57600080fd5b81356001600160a01b038116811461067d57600080fd5b6000602082840312156106e357600080fd5b5035919050565b6000602082840312156106fc57600080fd5b5051919050565b60006020828403121561071557600080fd5b8151801515811461067d57600080fd5b634e487b7160e01b600052601160045260246000fd5b6000821982111561074e5761074e610725565b500190565b60008282101561076557610765610725565b500390565b600081600019048311821515161561078457610784610725565b500290565b6000826107a657634e487b7160e01b600052601260045260246000fd5b50049056fea264697066735822122091a0faf8324f7e760f32d4dde6877ffe6eb46b7eec8d3b74b8023afa21a57edb64736f6c634300080a0033",
  "devdoc": {
    "kind": "dev",
    "methods": {},
    "version": 1
  },
  "userdoc": {
    "kind": "user",
    "methods": {},
    "version": 1
  },
  "storageLayout": {
    "storage": [
      {
        "astId": 4757,
        "contract": "contracts/VesterSale.sol:VesterSale",
        "label": "recipient",
        "offset": 0,
        "slot": "0",
        "type": "t_address"
      },
      {
        "astId": 4768,
        "contract": "contracts/VesterSale.sol:VesterSale",
        "label": "previousPoint",
        "offset": 0,
        "slot": "1",
        "type": "t_uint256"
      }
    ],
    "types": {
      "t_address": {
        "encoding": "inplace",
        "label": "address",
        "numberOfBytes": "20"
      },
      "t_uint256": {
        "encoding": "inplace",
        "label": "uint256",
        "numberOfBytes": "32"
      }
    }
  }
}