{
  "address": "0x4833d9D5EC1e97b3853fFe5Ab8284722DbFF9224",
  "abi": [
    {
      "inputs": [
        {
          "internalType": "address",
          "name": "mendi_",
          "type": "address"
        },
        {
          "internalType": "address",
          "name": "claimable_",
          "type": "address"
        },
        {
          "internalType": "address",
          "name": "admin_",
          "type": "address"
        }
      ],
      "stateMutability": "nonpayable",
      "type": "constructor"
    },
    {
      "anonymous": false,
      "inputs": [
        {
          "indexed": true,
          "internalType": "address",
          "name": "account",
          "type": "address"
        },
        {
          "indexed": false,
          "internalType": "uint256",
          "name": "amount",
          "type": "uint256"
        }
      ],
      "name": "Claim",
      "type": "event"
    },
    {
      "anonymous": false,
      "inputs": [
        {
          "indexed": true,
          "internalType": "address",
          "name": "account",
          "type": "address"
        },
        {
          "indexed": false,
          "internalType": "uint256",
          "name": "shares",
          "type": "uint256"
        },
        {
          "indexed": false,
          "internalType": "uint256",
          "name": "totalShares",
          "type": "uint256"
        }
      ],
      "name": "EditRecipient",
      "type": "event"
    },
    {
      "anonymous": false,
      "inputs": [
        {
          "indexed": false,
          "internalType": "address",
          "name": "newAdmin",
          "type": "address"
        }
      ],
      "name": "SetAdmin",
      "type": "event"
    },
    {
      "anonymous": false,
      "inputs": [
        {
          "indexed": true,
          "internalType": "address",
          "name": "account",
          "type": "address"
        },
        {
          "indexed": false,
          "internalType": "uint256",
          "name": "lastShareIndex",
          "type": "uint256"
        },
        {
          "indexed": false,
          "internalType": "uint256",
          "name": "credit",
          "type": "uint256"
        }
      ],
      "name": "UpdateCredit",
      "type": "event"
    },
    {
      "anonymous": false,
      "inputs": [
        {
          "indexed": false,
          "internalType": "uint256",
          "name": "shareIndex",
          "type": "uint256"
        }
      ],
      "name": "UpdateShareIndex",
      "type": "event"
    },
    {
      "inputs": [],
      "name": "MANTISSA2",
      "outputs": [
        {
          "internalType": "uint256",
          "name": "",
          "type": "uint256"
        }
      ],
      "stateMutability": "view",
      "type": "function"
    },
    {
      "inputs": [],
      "name": "admin",
      "outputs": [
        {
          "internalType": "address",
          "name": "",
          "type": "address"
        }
      ],
      "stateMutability": "view",
      "type": "function"
    },
    {
      "inputs": [],
      "name": "claim",
      "outputs": [
        {
          "internalType": "uint256",
          "name": "amount",
          "type": "uint256"
        }
      ],
      "stateMutability": "nonpayable",
      "type": "function"
    },
    {
      "inputs": [],
      "name": "claimable",
      "outputs": [
        {
          "internalType": "address",
          "name": "",
          "type": "address"
        }
      ],
      "stateMutability": "view",
      "type": "function"
    },
    {
      "inputs": [
        {
          "internalType": "address",
          "name": "account",
          "type": "address"
        },
        {
          "internalType": "uint256",
          "name": "shares",
          "type": "uint256"
        }
      ],
      "name": "editRecipient",
      "outputs": [],
      "stateMutability": "nonpayable",
      "type": "function"
    },
    {
      "inputs": [
        {
          "internalType": "address[]",
          "name": "accounts",
          "type": "address[]"
        },
        {
          "internalType": "uint256[]",
          "name": "shares",
          "type": "uint256[]"
        }
      ],
      "name": "editRecipients",
      "outputs": [],
      "stateMutability": "nonpayable",
      "type": "function"
    },
    {
      "inputs": [],
      "name": "mendi",
      "outputs": [
        {
          "internalType": "address",
          "name": "",
          "type": "address"
        }
      ],
      "stateMutability": "view",
      "type": "function"
    },
    {
      "inputs": [
        {
          "internalType": "address",
          "name": "",
          "type": "address"
        }
      ],
      "name": "recipients",
      "outputs": [
        {
          "internalType": "uint256",
          "name": "shares",
          "type": "uint256"
        },
        {
          "internalType": "uint256",
          "name": "lastShareIndex",
          "type": "uint256"
        },
        {
          "internalType": "uint256",
          "name": "credit",
          "type": "uint256"
        }
      ],
      "stateMutability": "view",
      "type": "function"
    },
    {
      "inputs": [
        {
          "internalType": "address",
          "name": "admin_",
          "type": "address"
        }
      ],
      "name": "setAdmin",
      "outputs": [],
      "stateMutability": "nonpayable",
      "type": "function"
    },
    {
      "inputs": [],
      "name": "shareIndex",
      "outputs": [
        {
          "internalType": "uint256",
          "name": "",
          "type": "uint256"
        }
      ],
      "stateMutability": "view",
      "type": "function"
    },
    {
      "inputs": [],
      "name": "totalShares",
      "outputs": [
        {
          "internalType": "uint256",
          "name": "",
          "type": "uint256"
        }
      ],
      "stateMutability": "view",
      "type": "function"
    },
    {
      "inputs": [
        {
          "internalType": "address",
          "name": "account",
          "type": "address"
        }
      ],
      "name": "updateCredit",
      "outputs": [
        {
          "internalType": "uint256",
          "name": "credit",
          "type": "uint256"
        }
      ],
      "stateMutability": "nonpayable",
      "type": "function"
    },
    {
      "inputs": [],
      "name": "updateShareIndex",
      "outputs": [
        {
          "internalType": "uint256",
          "name": "_shareIndex",
          "type": "uint256"
        }
      ],
      "stateMutability": "nonpayable",
      "type": "function"
    }
  ],
  "transactionHash": "0xb0439f4e82666329c32430781f49e85d1fef9b9062c761d1cba09cb957025164",
  "args": [
    "0xd86c8d4279ccafbec840c782bcc50d201f277419",
    "0xedddD28b52D80b259B1B6Bf9572d156d17A09411",
    "0x67e633b2494f126c7e828B63b32E4d2667091bE4"
  ],
  "numDeployments": 1,
  "solcInputHash": "baf4797a4088026ec5eac6c95628c15d",
  "bytecode": "0x60c06040526003805460ff1916600117905534801561001d57600080fd5b50604051610c77380380610c7783398101604081905261003c9161008d565b6001600160a01b0392831660805290821660a052600380549190921661010002610100600160a81b03199091161790556100d0565b80516001600160a01b038116811461008857600080fd5b919050565b6000806000606084860312156100a257600080fd5b6100ab84610071565b92506100b960208501610071565b91506100c760408501610071565b90509250925092565b60805160a051610b7461010360003960008181610182015261044101526000818161012501526107520152610b746000f3fe608060405234801561001057600080fd5b50600436106100cf5760003560e01c8063a4692a261161008c578063b9716d4f11610066578063b9716d4f146101ac578063c56ad1ad146101bf578063eb820312146101c8578063f851a4401461021257600080fd5b8063a4692a2614610172578063af38d7571461017d578063b260187d146101a457600080fd5b80633a98ef39146100d457806345c08718146100f05780634674a930146101035780634e71d92d146101185780635f33f28114610120578063704b6c021461015f575b600080fd5b6100dd60015481565b6040519081526020015b60405180910390f35b6100dd6100fe36600461083a565b61022a565b610116610111366004610855565b6102f4565b005b6100dd61033a565b6101477f000000000000000000000000000000000000000000000000000000000000000081565b6040516001600160a01b0390911681526020016100e7565b61011661016d36600461083a565b61034a565b6100dd600160a01b81565b6101477f000000000000000000000000000000000000000000000000000000000000000081565b6100dd6103d5565b6101166101ba366004610955565b610550565b6100dd60025481565b6101f76101d636600461083a565b60006020819052908152604090208054600182015460029092015490919083565b604080519384526020840192909252908201526060016100e7565b6003546101479061010090046001600160a01b031681565b6000806102356103d5565b9050806102455750600092915050565b6001600160a01b038316600090815260208190526040902080546001820154600160a01b9161027f9161027990869061062f565b90610642565b6102899190610a2b565b81600201546102989190610a4d565b600182018390556002820181905560408051848152602081018390529194506001600160a01b038616917ff7240857a4f83123f14a7bc3f77cd32d0ae71ede635c92ebdcc14d5ea8ed018a910160405180910390a25050919050565b60035461010090046001600160a01b0316331461032c5760405162461bcd60e51b815260040161032390610a65565b60405180910390fd5b610336828261064e565b5050565b600061034533610702565b905090565b60035461010090046001600160a01b031633146103795760405162461bcd60e51b815260040161032390610a65565b60038054610100600160a81b0319166101006001600160a01b038416908102919091179091556040519081527f5a272403b402d892977df56625f4164ccaf70ca3863991c43ecfe76a6905b0a19060200160405180910390a150565b60035460009060ff166104235760405162461bcd60e51b8152602060048201526016602482015275111a5cdd1c9a589d5d1bdc8e8814915153951154915160521b6044820152606401610323565b6003805460ff1916905560015461043d5750600254610540565b60007f00000000000000000000000000000000000000000000000000000000000000006001600160a01b0316634e71d92d6040518163ffffffff1660e01b81526004016020604051808303816000875af115801561049f573d6000803e3d6000fd5b505050506040513d601f19601f820116820180604052508101906104c39190610a9c565b9050806104d4575050600254610540565b6105036002546104fd6001546104f7600160a01b8661064290919063ffffffff16565b9061080b565b90610817565b60028190556040518181529092507f8cae7c5b456d193882de6985578f406aefb641501192211706c5aa0a32612fec9060200160405180910390a1505b6003805460ff1916600117905590565b60035461010090046001600160a01b0316331461057f5760405162461bcd60e51b815260040161032390610a65565b80518251146105d05760405162461bcd60e51b815260206004820152601f60248201527f4f776e65644469737472696275746f723a20494e56414c49445f494e505554006044820152606401610323565b60005b825181101561062a576106188382815181106105f1576105f1610ab5565b602002602001015183838151811061060b5761060b610ab5565b602002602001015161064e565b8061062281610acb565b9150506105d3565b505050565b600061063b8284610ae6565b9392505050565b600061063b8284610afd565b6106578261022a565b506001600160a01b038216600090815260208190526040812080549091818411610696576106916106888584610ae6565b6001549061062f565b6106ac565b6106ac6106a38386610ae6565b60015490610817565b600181905584845560408051868152602081018390529192506001600160a01b038716917fff3664f5f2f8f85ecd8d30ef2aa6773d8a8448219c7421dcbb67957fb3fafba1910160405180910390a25050505050565b600061070d8261022a565b90508015610806576001600160a01b03828116600081815260208190526040808220600201919091555163a9059cbb60e01b81526004810191909152602481018390527f00000000000000000000000000000000000000000000000000000000000000009091169063a9059cbb906044016020604051808303816000875af115801561079d573d6000803e3d6000fd5b505050506040513d601f19601f820116820180604052508101906107c19190610b1c565b50816001600160a01b03167f47cee97cb7acd717b3c0aa1435d004cd5b3c8c57d70dbceb4e4458bbd60e39d4826040516107fd91815260200190565b60405180910390a25b919050565b600061063b8284610a2b565b600061063b8284610a4d565b80356001600160a01b038116811461080657600080fd5b60006020828403121561084c57600080fd5b61063b82610823565b6000806040838503121561086857600080fd5b61087183610823565b946020939093013593505050565b634e487b7160e01b600052604160045260246000fd5b604051601f8201601f1916810167ffffffffffffffff811182821017156108be576108be61087f565b604052919050565b600067ffffffffffffffff8211156108e0576108e061087f565b5060051b60200190565b600082601f8301126108fb57600080fd5b8135602061091061090b836108c6565b610895565b82815260059290921b8401810191818101908684111561092f57600080fd5b8286015b8481101561094a5780358352918301918301610933565b509695505050505050565b6000806040838503121561096857600080fd5b823567ffffffffffffffff8082111561098057600080fd5b818501915085601f83011261099457600080fd5b813560206109a461090b836108c6565b82815260059290921b840181019181810190898411156109c357600080fd5b948201945b838610156109e8576109d986610823565b825294820194908201906109c8565b965050860135925050808211156109fe57600080fd5b50610a0b858286016108ea565b9150509250929050565b634e487b7160e01b600052601160045260246000fd5b600082610a4857634e487b7160e01b600052601260045260246000fd5b500490565b60008219821115610a6057610a60610a15565b500190565b6020808252601e908201527f4f776e65644469737472696275746f723a20554e415554484f52495a45440000604082015260600190565b600060208284031215610aae57600080fd5b5051919050565b634e487b7160e01b600052603260045260246000fd5b6000600019821415610adf57610adf610a15565b5060010190565b600082821015610af857610af8610a15565b500390565b6000816000190483118215151615610b1757610b17610a15565b500290565b600060208284031215610b2e57600080fd5b8151801515811461063b57600080fdfea26469706673582212203e280e29acbc440f288617124eb6fb7d49db059ec66eb6172e3a780d543c409f64736f6c634300080a0033",
  "devdoc": {
    "kind": "dev",
    "methods": {},
    "version": 1
  },
  "userdoc": {
    "kind": "user",
    "methods": {},
    "version": 1
  },
  "storageLayout": {
    "storage": [
      {
        "astId": 1054,
        "contract": "contracts/OwnedDistributor.sol:OwnedDistributor",
        "label": "recipients",
        "offset": 0,
        "slot": "0",
        "type": "t_mapping(t_address,t_struct(Recipient)1049_storage)"
      },
      {
        "astId": 1056,
        "contract": "contracts/OwnedDistributor.sol:OwnedDistributor",
        "label": "totalShares",
        "offset": 0,
        "slot": "1",
        "type": "t_uint256"
      },
      {
        "astId": 1058,
        "contract": "contracts/OwnedDistributor.sol:OwnedDistributor",
        "label": "shareIndex",
        "offset": 0,
        "slot": "2",
        "type": "t_uint256"
      },
      {
        "astId": 1317,
        "contract": "contracts/OwnedDistributor.sol:OwnedDistributor",
        "label": "_notEntered",
        "offset": 0,
        "slot": "3",
        "type": "t_bool"
      },
      {
        "astId": 1897,
        "contract": "contracts/OwnedDistributor.sol:OwnedDistributor",
        "label": "admin",
        "offset": 1,
        "slot": "3",
        "type": "t_address"
      }
    ],
    "types": {
      "t_address": {
        "encoding": "inplace",
        "label": "address",
        "numberOfBytes": "20"
      },
      "t_bool": {
        "encoding": "inplace",
        "label": "bool",
        "numberOfBytes": "1"
      },
      "t_mapping(t_address,t_struct(Recipient)1049_storage)": {
        "encoding": "mapping",
        "key": "t_address",
        "label": "mapping(address => struct Distributor.Recipient)",
        "numberOfBytes": "32",
        "value": "t_struct(Recipient)1049_storage"
      },
      "t_struct(Recipient)1049_storage": {
        "encoding": "inplace",
        "label": "struct Distributor.Recipient",
        "members": [
          {
            "astId": 1044,
            "contract": "contracts/OwnedDistributor.sol:OwnedDistributor",
            "label": "shares",
            "offset": 0,
            "slot": "0",
            "type": "t_uint256"
          },
          {
            "astId": 1046,
            "contract": "contracts/OwnedDistributor.sol:OwnedDistributor",
            "label": "lastShareIndex",
            "offset": 0,
            "slot": "1",
            "type": "t_uint256"
          },
          {
            "astId": 1048,
            "contract": "contracts/OwnedDistributor.sol:OwnedDistributor",
            "label": "credit",
            "offset": 0,
            "slot": "2",
            "type": "t_uint256"
          }
        ],
        "numberOfBytes": "96"
      },
      "t_uint256": {
        "encoding": "inplace",
        "label": "uint256",
        "numberOfBytes": "32"
      }
    }
  }
}